:108000000C94795B0C94254E1895FFFFFFFFFFFF42
:108010000C943F4E0C94CF580C9421590C94005959
:108020000C94894F0C942D590C943B590C9449593C
:108030000C9457590C9481590C9465590C947359AC
:108040000C94AB590C945A4E0C949D590C94524E6E
:108050000C94624E0C94DC400C94752C0C94882C7F
:108060000C94B62A0C948B2A0C949E2A0C94582AB1
:108070000C946B2A0C94CA2A0C94DF110C94025AAB
:108080000C94E65A0C94F6530C9426540C945554C4
:108090000C9406550C9462560C947E560C94C15464
:1080A0000C9441560C94AD240C9425560C94F9551F
:1080B0000C944B4F1895FFFF1895FFFF1895FFFF85
:1080C0001895FFFFFFFFFFFFFFFFFFFFFFFFFFFF11
:1080D0000E0EC0DEA5A5C0DE0024486C90B4D8FC0E
:1080E0000C1919000910101010001E1100000B0AC5
:1080F0000252335259527E5259527E528B53AE52D3
:10810000C052CF520252335259527E5259527E526D
:108110003C527E528B53AE52C052CF527A007304FF
:10812000000019005A04F2B7840148000002000060
:1081300000000000FFFFFFFFFFFFFFFFFFFFFFFF4B
:10814000FFFFFFFFFFFFFFFFFFFFFFFFFFFFFFFF3F
:10815000FFFFFFFFFFFFFFFFFFFFFFFFFFFFFFFF2F
:10816000FFFFFFFFFFFFFFFFFFFFFFFFFFFFFFFF1F
:10817000FFFFFFFFFFFFFFFFFFFFFFFFFFFFFFFF0F
:1081800028C0CCC22FC032C0C9C234C081C0CEC04A
:1081900011C156C16CC185C1C4C103C21BC22CC26E
:1081A000BDC2BCC238C23CC2B9C255C2B7C25AC2B3
:1081B00092C2B4C2A0C2B2C29F93EF93FF93FFB723
:1081C000FF939EB59B3108F0A9C2E0ECE90FF0E403
:1081D00009949CB59F779CBDFF91FFBFFF91EF91E4
:1081E0009F911895F091D500FEBDF3CFF091DC0082
:1081F000FEBDEFCFFF27FEBDE9E0E0935801E6E0CA
:10820000E0935002E1E4E0935102E3CFF0E0E0912B
:10821000E100E7FBEF77F0FDE068E093E100F0912B
:10822000DF00FEBDE091E100E7F9E093E100EEB58B
:10823000EA95E0935402E0E8E0935801E6E2E09327
:108240005002E1E4E09351020C947E2CF0E0E091C6
:10825000E100E7FBEF77F0FDE068E093E100E091FB
:108260005402E03061F0F091DF00FEBDEA9539F094
:10827000F0915701F6FFB9F7E0935402E0E8E0937C
:108280005801E091E100E7F9E093E1000C94962CAD
:10829000FF27FEBDE9E0E0935801E4E5E0935002DA
:1082A000E1E4E093510295CFF0E0E091DA00E7FBE2
:1082B000EF77F0FDE068E093DA00F091D800FEBDC2
:1082C000E091DA00E7F9E093DA00EEB5EA95E093A1
:1082D0005402E0E8E0935801E4E7E0935002E1E45F
:1082E000E09351020C947E2CF0E0E091DA00E7FB81
:1082F000EF77F0FDE068E093DA00E0915402E030BF
:1083000061F0F091D800FEBDEA9539F0F091570187
:10831000F6FFB9F7E0935402E0E8E0935801E091EA
:10832000DA00E7F9E093DA000C94962CFF27FEBD03
:10833000FEBDEBE0E0935801E3EAE0935002E1E494
:10834000E093510246CFEEB5E0935402FEB5F093B0
:108350005302FEB5F0935202E43008F0E4E0E86026
:10836000E0935801EAEBE0935002E1E4E09351021C
:108370000C94832C9F938F9380915402F09153021D
:10838000E09152029EB591938A9571F090915701B8
:108390009770C1F780935402F0935302E093520216
:1083A000843008F084E08860809358018F919F9119
:1083B0000C94832CFF27FEBDFEBDFEBDEBE0E093D9
:1083C0005801E8EEE0935002E1E4E093510201CF5E
:1083D0009F93EEB5EA95E0935402FEB5EEB5919108
:1083E0009EBDF0935302E0935202E0E8E0935801FF
:1083F000E1E0E0935002E2E4E09351029F910C949B
:10840000832C9F938F9380915402E0915202F091BC
:108410005302803079F091919EBD8A9559F09091E8
:10842000570196FFC1F780935402E0935202F093F4
:10843000530280E8809358018F919F910C94962C61
:10844000FF27FEBDFEBDEBE0E0935801EDE2E093B7
:108450005002E2E4E0935102BCCEEEB5E2BDEEB5CF
:10846000E1BDEEB5E0BDFA9AF99A0C947E2CFF2797
:10847000FEBDFEBDEAE0E0935801E6E4E093500261
:10848000E2E4E0935102A5CE0C947E2CF999FCCF46
:10849000EEB5E2BDEEB5E1BDF89AE0B5EEBD0C94E7
:1084A0007E2CFF27FEBDE9E0E0935801EDE5E09367
:1084B0005002E2E4E09351028CCEEEB5E093540218
:1084C000E43008F0E4E0E860E0935801EEE6E09381
:1084D0005002E2E4E09351020C94832CF1E0E0912D
:1084E000DA00E7FBEF77F0FDE068E093DA00E09177
:1084F0005402FEB5F093D800EA9551F0F09157017F
:10850000F770B9F7E0935402E4300CF0E4E0E8606F
:10851000E0935801E091DA00E7F9E093DA000C9477
:10852000832CFF27FEBDE9E0E0935801EDE9E093DD
:108530005002E2E4E09351024CCEEEB5E0935402D7
:10854000E43008F0E4E0E860E0935801EEEAE093FC
:108550005002E2E4E09351020C94832CF1E0E091AC
:10856000E100E7FBEF77F0FDE068E093E100E091E8
:108570005402FEB5F093DF00EA9551F0F0915701F7
:10858000F770B9F7E0935402E4300CF0E4E0E860EF
:10859000E0935801E091E100E7F9E093E1000C94E9
:1085A000832CFF27FEBDEAE0E0935801EDEDE09358
:1085B0005002E2E4E09351020CCEEEB5E093D10319
:1085C000E091CD03E068E093CD03EEB5E093D203F4
:1085D0000C947E2CEAE0E0935801E4EFE093500223
:1085E000E2E4E0935102F5CDEEB5E093D003EEB5B1
:1085F000E093D2030C947E2CE9E0E0935801E6E08E
:10860000E0935002E3E4E0935102E3CDF091CE0316
:10861000E091CF030994EDEFFBE694919EBDD9CD97
:10862000EDEFFBE694919EBDE9E0E0935801EEE1A9
:10863000E0935002E3E4E0935102CBCDFFEFE0EF93
:108640008F939F9383E095919EBD8A95E1F79F91CB
:108650008F910C947E2CF8E1F0936E00F8E0F0938B
:108660006E00FFCFE9E0E0935801ECE3E0935002A5
:10867000E3E4E0935102ADCDFEB5E0E0EABDFF706A
:10868000F03019F4D49A0C947E2CD498F093E6012F
:1086900000000000000000000000000000000000DA
:1086A000000000000000000000000000F160FABDC2
:1086B00000000000000000000000000000000000BA
:1086C000000000000000000000000000F061F093D6
:1086D000E6010C947E2CFF27F4B9F7B9FAB9EFEF55
:1086E000E5B9E8B94298EBB9FF99FECFE8B7EB607E
:1086F000E8BF88956ECDEAE0E0935801E5E8E093A5
:108700005002E3E4E093510264CDFEB5EEB5EE0F06
:10871000FE2BF068F093D3030C947E2C5ACDFF937C
:10872000EF93FFB7FF93499B10C0F0915701F86892
:10873000F0935701F0915801F777F0935801E091C9
:10874000CD03EF7DE093CD0314C0F0915701F8689D
:10875000F09357010000FF27FEBDFEBDFCB5F06899
:10876000FCBDF8B7FE7FF8BFE091CD03E062E09377
:10877000CD03FF91FFBFEF91FF91189500E0EEEC64
:10878000F3E0008301830093C0030093C1030093CF
:10879000C2030093C3030093C4030093C503009373
:1087A000C6030093C7030093C8030093C903009353
:1087B000CA030093CB030093CC030093CD03009333
:1087C000D0030093D1030093D2030093D30300930B
:1087D000D4030093D5030093D6030093D7030093EB
:1087E000D9030093DA030093DB030093DC030895BD
:1087F000E0ECF3E00585006105870E94E81B00912D
:10880000A10207FD10C000E80E944D1CE8EDF3E056
:1088100000810F7E0083E0ECF3E005850F7E058785
:108820000381006203830895E0ECF3E005850860AE
:1088300005870E94E81B0091A10207FD10C000E41B
:108840000E944D1CE8EDF3E000810F7D0083E0EC19
:10885000F3E00585077F05870381006103830895A1
:108860000091DA030770013019F40EE618E002C037
:108870000CE618E00C94725800E01091D90316FD34
:1088800000E815FD006412FD006214FD0061109106
:10889000DA0312951370012B086008958A93F894F7
:1088A0000091D0030093D80300E00093D00300911F
:1088B000D2030F730093DA0300E00093D20378949D
:1088C0000093D903D9DF802FCBDF98010091D80323
:1088D00007FF04C0082F0E94132B0DC005FF02C024
:1088E000A3DF09C004FF02C083DF05C003FF03C08C
:1088F000082F0E94902B899108958A93E0ECF3E071
:1089000005850F770587F8940091D1030093D9036B
:1089100000E00093D1030091D2030F730093DA03B8
:1089200000E00093D20378940091D9030370A9F476
:1089300000916C0204FF02C00E9428260091D90316
:1089400004FF06C00E94DA1F07E00E94B01F0CC09F
:108950000E94261F0E94CD1F07C08EDF802F80DF60
:108960009801082F0E94D225C6CF8A930091CD038B
:1089700007FDC3DF0091D003002309F08FDF0091D2
:10898000D3030023E1F0F8948091D3038F7700E0C4
:108990000093D30378940CE618E00E9472588E7FFF
:1089A00021F00EE618E00E9472584BE298010DE6A5
:1089B00015E00E94851E002311F00E94C1589BCF34
:1089C0008F93EF93FF93EFB7EF93E0913603F0911E
:1089D00037030995EF91EFBFFF91EF918F911895B4
:1089E0008F93EF93FF93EFB7EF93E0913803F091FC
:1089F00039030995EF91EFBFFF91EF918F91189592
:108A0000F3B1E0913A03F0933A03EF278091CB035F
:108A10008E2B8093CB03F0916C00EF23F091F20347
:108A2000EF23E03011F00E94B1580895F9B1E091C0
:108A30003B03F0933B03EF278091CC038E2B809375
:108A4000CC03F0916D00EF23F091F303EF23E030BE
:108A500011F00E94B158089543B140933A0349B1CF
:108A600040933B03E6E3F3E00083118322833383E7
:108A70000895229701E80EB9739A0E945A510E94F4
:108A8000BE430BB50093CA0300E00BBD0E94011F5B
:108A90000E944A200E94A54F013011F40E94CC5838
:108AA0000E94F42400E800938E0102E000938E01FE
:108AB00002E10093620101E002BF14E008E00E94BD
:108AC00084470E949A560E94315B0E9447250E946B
:108AD000E0470E947F200E94E81B0E943A100E94FB
:108AE000C84F78940E94414800E00883098342E01F
:108AF0002CE638E08E010E94851E44E128813981F0
:108B0000285F3F4F0EEB14E00E94851E0091C904C0
:108B100000FF02C00E944C4C0091C90405FD02C038
:108B20000E94744C10E000E40E94E14D20C000E17E
:108B30000E94264B00E00093620114E008E00E94CE
:108B4000844700917904007A003811F40E940D4D99
:108B5000009177040073003111F40E944C4C05E041
:108B60000093F403E6E7F4E00181006201830E94D0
:108B7000261F10B104E0102710B90091DD0407FF93
:108B800002C00E94074F0091770400FF08C00E94B6
:108B9000004E0E940D4D10E000E40E94E14D009156
:108BA000DD0407FF02C00E94074F0091DE0406FFAC
:108BB00012C04A9B0EC001E000937B040E940D4D41
:108BC000EEEDF4E000810F7B008306B5026006BD88
:108BD00002C00E948A4EE6E7F4E0038103FF02C070
:108BE000077F038300917504013009F0AACF0E942A
:108BF000244800917304013009F099CF08E098CF20
:108C00000091790400690093790406EA00937E04D8
:108C1000089500917B04013011F401E809C002308D
:108C200011F402E805C0033011F403EC01C004E8BC
:108C300000937B040091790400690093790405EAAC
:108C4000E5CF1091DB04113011F411E003C0109155
:108C50007E04139510937E0410917D04002321F16E
:108C600020917B04201781F4133008F413951330FE
:108C700028F0E6E7F4E00381006403830091DB045D
:108C80000E33F8F0C6DF1DC0112311F01A9529F438
:108C9000E6E7F4E023812F7B23832091790426FDEE
:108CA00010C000937B040DC0112311F01A9549F4F4
:108CB000E6E7F4E0038106FF02C0A2DF02C0006124
:108CC000038310937D0400917E04089500E00E94C8
:108CD000E9200E9493200E94335208E0009351043F
:108CE0000AE10093540407E00093520400E6009365
:108CF000530400E00093550400000091B10100FF0F
:108D0000FBCF08950091B2010F770093B20100915B
:108D1000B001037D0093B0010091B00100610093A8
:108D2000B00130E023E008E00093B40102E0309F9E
:108D3000F001E058FB4F00810093B801F001E058CA
:108D4000FB4F01810093B901F001EA57FB4F00810D
:108D50000093BA01F001EA57FB4F01810093BB0178
:108D6000F001EC56FD4F06810093BC01F001EC567A
:108D7000FD4F07810093BD01F8940091B00102609E
:108D80000093B0010091B40103FFFCCF0091BE013C
:108D90001091BF01F001E457FB4F0083118333951D
:108DA0002A9509F608E00093B4010895BA93AA93AE
:108DB000219741E02FE730E08E010E94851E46E0BA
:108DC00024E830E002E914E00E94851E46E02BE72B
:108DD00030E008E914E00E94851EA2E9B4E0ED91BC
:108DE000FC91EF3FFF4F31F4E2E9F4E000E01AE0DC
:108DF00000831183A4E9B4E0ED91FC91EF3FFF4FB4
:108E000031F4E2E9F4E000E01AE002831383A6E91A
:108E1000B4E0ED91FC91EF3FFF4F31F4E2E9F4E073
:108E200000E01AE004831583A8E9B4E0ED91FC9119
:108E3000EF3FFF4F31F4E8E9F4E000E01AE000838F
:108E40001183AAE9B4E0ED91FC91EF3FFF4F31F4BB
:108E5000E8E9F4E000E01AE002831383ACE9B4E04F
:108E6000ED91FC91EF3FFF4F31F4E8E9F4E000E0D1
:108E70001AE00483158300E0088348E954E022E9FE
:108E800034E00E948B223EDF10E003E022E0129FDC
:108E9000F001E457FB4F2081F001E256FB4F2083A5
:108EA000F001E457FB4F2181F001E256FB4F218393
:108EB00013950A9559F724EA34E00EE914E00E946C
:108EC0007323009194020093A80407FD06C026EACC
:108ED00034E004EA14E00E94E6232196A991B991B6
:108EE0000895E2E9F4E000E004830583028303834C
:108EF00000830183E8E9F4E011E004831583028331
:108F00001383008311830895249729B5216029BD17
:108F100029B521FFFDCF20915A042093A90120916A
:108F20005B042093A80120915C042093A7010768AB
:108F30000FBD00EC00BF0BB7006D0BBF01E000934D
:108F4000A6011ABF00E808BB44E02CE630E08E0121
:108F50000E94851E0A81009390010981009391016E
:108F60000881009392010B81009393010FEF00930E
:108F7000950100939601009397010093980108E1F1
:108F8000009394010093990100939A010FEF0093CD
:108F9000A40109E000939B0104E000939F0100916C
:108FA000D80100630093D80105E40093D70100E0E5
:108FB0000093730400937404009375042496089539
:108FC00000E000939402009395020C947F209A9302
:108FD0008A93C8010E9466460DEE12E001501040CF
:108FE000E9F700C000009C0101E514E00E94442163
:108FF00003E00A95F1F700000091950207FFFCCF0E
:10900000813039F420E030E006E814E00E94E921E4
:1090100018C08823B1F420E030E000E814E00E949A
:10902000E9210091C1010093BA040091C2010093AB
:10903000BB040091C3010093BC040091C4010093E0
:10904000BD0489919991089509B5016009BD09B5DB
:1090500001FFFDCF08B300937F04002371F020E0EF
:1090600019B3F0E0E22FED5BFC4F158323950A95D1
:10907000B9F700917F040093430309B50E7F09BD42
:1090800008950E949F5B0BB707600BBFA0E003E051
:10909000402EB0E080E090E0AA2339F40B2F086066
:1090A00000935A040093A90111C0A13039F40B2F89
:1090B000086000935B040093A80108C0A23031F45B
:1090C0000B2F086000935C040093A70179DF10E088
:1090D00001E07DDF02E0A09FF001EA57FB4F008135
:1090E00011810817190710F0B05FC8010817190798
:1090F00011F4BB2389F6A3954A9459F614E008E0CD
:1091000003DFE5E00C94A65B002321F059DF10E0BB
:1091100001E05DDF46E024E830E006E814E00C946E
:10912000BA1E229700E00883098342E02CE638E06B
:109130008E010E94851E49E0288139812D5E3F4FB6
:1091400009EC14E00E94851E0091C90400FD14C0C2
:1091500000E20093D1040091C90403600093C904A4
:1091600007E00093CD0449E0288139812D5E3F4F0F
:1091700009EC14E00E94BA1EE6E7F4E00181006108
:10918000018322960895BA93AA9322973FE020E0A4
:1091900007E713E00E944A5B01E000937A03209105
:1091A000B9040091D404000F0E702170022B1091AD
:1091B000D2041295107F012B00937B030091D204FF
:1091C0000023D1F00A9509F4A0C00A9509F48EC0D5
:1091D000025009F4B5C0015070F0045008F10A952E
:1091E00009F4D4C00A9509F433C1035009F4C3C18A
:1091F0000A9509F4C8C104C2E5EDF4E000811181CB
:1092000022813381E5E7F3E00783108721873287E6
:1092100044E02CE630E000E813E00E94851EEFC138
:109220000E94D6460091A40400937C030091A504FB
:1092300000937D030091A8040F7700937E030091B3
:10924000BA0400937F030091BB0400938003009154
:10925000BC04009381030091BD0400938203D6985F
:1092600000E20DBB42E02AE238E08E010E94851E3A
:10927000088119810E946F1044E029E433E003E87B
:1092800013E00E943F5BE5EDF4E000811181228153
:109290003381E5E7F3E0028B138B248B358B40E1C0
:1092A0002BE733E009EA14E00E943F5B29EA34E04F
:1092B00001E811E00E94901100E80DBBF09BFECF89
:1092C000F09A20E000E110918101F0E0E22FE755F3
:1092D000FB4F108323950A95B1F744E029EA34E067
:1092E00003E813E00E943F5BD69A8AC100914903CC
:1092F00010E04DE250E00E948B5B980120533F4FFD
:109300004FE00AE413E00E94BA1E44E02CE630E08D
:109310000CE713E00E94851E0091490310E04DE226
:1093200050E00E948B5B980120533F4F4FE000E8D4
:1093300013E00E94851E0091490300937F035FC1E3
:109340000E94D6460091A40400937C030091A504DA
:1093500000937D030091A80400937E030091BA045A
:1093600000937F030091BB04009380030091BC0431
:10937000009381030091BD04009382030091480390
:109380000695069503700093D9043AC10E94D6460B
:109390003091A5040091A404E5E7F3E0058F368F32
:1093A0000091A804078F0091BA0407830091BB04C1
:1093B00000870091BC0401870091BD040287E2E9A7
:1093C000F4E004811581E5E7F3E003871487E2E91F
:1093D000F4E002811381E5E7F3E005871687E2E90F
:1093E000F4E000811181E5E7F3E00787108BE0E806
:1093F000F4E004811581E5E7F3E0018B128BE0E8EE
:10940000F4E002811381E5E7F3E0038B148BE0E8DD
:10941000F4E000811181E5E7F3E0058B168BE6E8C7
:10942000F4E004811581E5E7F3E0078B108FE6E8AF
:10943000F4E002811381E5E7F3E0018F128FE6E8A3
:10944000F4E000811181E5E7F3E0038F148FD7C0CA
:10945000A9E4B3E0ED91FC91EF3FFF4F71F4ABE471
:10946000B3E0ED91FC91EF3FFF4F39F4ADE4B3E091
:10947000ED91FC91EF3FFF4FF1F0E3E4F3E0068163
:109480001781E8E9F4E004831583E3E4F3E0008561
:109490001185E8E9F4E002831383E3E4F3E0028555
:1094A0001385E8E9F4E00083118346E02BE730E020
:1094B0008F010E94BA1EAFE4B3E0ED91FC91EF3F43
:1094C000FF4F41F1A1E5B3E0ED91FC91EF3FFF4F7C
:1094D00009F1A3E5B3E0ED91FC91EF3FFF4FD1F02F
:1094E000E3E4F3E004851585E6E8F4E004831583FE
:1094F000E3E4F3E006851785E6E8F4E002831383EE
:10950000E3E4F3E000891189E6E8F4E000831183E5
:1095100000E0FADDE8E9F4E004811581E5E7F3E035
:1095200007831087E8E9F4E002811381E5E7F3E0BF
:1095300001871287E8E9F4E000811181E5E7F3E0B3
:1095400003871487E2E9F4E004811581E5E7F3E09D
:1095500005871687E2E9F4E002811381E5E7F3E08D
:109560000787108BE2E9F4E000811181E5E7F3E081
:10957000018B128B44C046E02DE534E00CE713E08C
:109580000E943F5B3CC000914D03033030F544E046
:109590002CEC30E8049F200D311D0EE413E00E94F6
:1095A000685B002311F001E001C000E0002381F4BA
:1095B00004E010E0ECECF0E820914D03209FE00D7A
:1095C000F11D30E0AEE4B3E00E94B25B012B29F064
:1095D00000914D030093DA0403C000E00093F2040D
:1095E000E3E4F3E00681178120853185E5E7F3E0C8
:1095F00007831087218732870091DA04038791DD82
:109600002296A991B99108957DD00023F1F0409A56
:10961000BADD06E00E94172020E003E01FEFF0E033
:10962000E22FEB58FC4F128323950A95C1F70EEFFA
:1096300000937A030E94CE4C0AB501700093B904DE
:1096400000E00093E601D49A4098089510917F04B9
:109650001230C0F11091480312951F701093D2047C
:109660000093D304087169F10091D304000F000F37
:10967000000F1091D304102B1093D304E091D20467
:10968000F0E0ED59FB4F00810023C1F099DC419BD4
:1096900002C0419801C0419A11E000E098DC03E962
:1096A00011E101501040E9F700C00000419B02C0E9
:1096B000419801C0419A10E001E089DC00E000938C
:1096C000D904A2DF08951091B2011F7B1093B2015B
:1096D00000233091B9010091B80119F4E0E8F4E0F9
:1096E00002C0E6E8F4E0008331833091BB010091D1
:1096F000BA01028333833091BD010091BC01048320
:1097000035830895229741E028E730E004ED14E026
:109710000E94851E44E020EB38E005ED14E00E9435
:10972000851E0091D2040A9569F00A9559F00250FD
:1097300061F10A95B1F00A95A1F00A9549F00A95F0
:1097400039F015C00091D304007C0038A9F4A2C000
:1097500000914803069507701091D404011709F091
:1097600099C00091D304007C003879F493C0009133
:10977000D304007C003449F4009148030695077037
:109780001091D404011709F085C00091D2040A9504
:1097900029F00A9519F00950C9F005C00091DA04C2
:1097A000002309F477C00091D2040A9551F00A957C
:1097B00041F0045091F0025081F0075009F458C074
:1097C0000AC000914903003230F064C00091DA040D
:1097D000013009F05FC001E0D4CCD69800E20DBBA7
:1097E00042E02AE438E08E010E94851E088119813A
:1097F0000E946F100AE00A95F1F744E029E433E093
:1098000009EA14E00E943F5B44E02CE0042FF0E002
:109810000370E02FE755FB4F0081F0E0E42FE755A0
:10982000FB4F008343952A9589F729EA34E001E844
:1098300011E00E94901100E80DBBF09BFECFF09A62
:1098400020E000E110918101F0E0E22FE755FB4FAD
:10985000108323950A95B1F7D69A44E02DE433E0BE
:1098600009EA14E00E94545B002309F0B4CF12C04F
:10987000E5EDF4E00081118122813381E3E4F3E03E
:1098800046815781608571850417150726073707BC
:1098900009F4A1CF00E0A0CF229700E0088309835C
:1098A00042E02CE638E08E010E94851E41E02881CE
:1098B00039812D5E3F4F09EC14E00E94851EEEEBCE
:1098C000F4E0038500FF0BC00E7F038741E0288191
:1098D00039812D5E3F4F09EC14E00E94BA1EE6E785
:1098E000F4E001810F7E4CCC229700E008830983CD
:1098F00042E02CE638E08E010E94851E42E028817D
:1099000039812D5E3F4F09EC14E00E94851EEEEB7D
:10991000F4E0038505FD0DC0006203870BE00487BA
:1099200042E0288139812D5E3F4F09EC14E00E940E
:10993000BA1EE6E7F4E00181086022CC419B02C038
:10994000419801C0419AE091D204F0E0E052FF4713
:109950000491009375030E94472527E733E00091A7
:1099600075030E94A0250CE618E00E947258980129
:1099700008E40E94D2250E94352600916C0204FD65
:10998000FACF0E9428260091CC000F7E0093CC00D5
:10999000419B02C041980895419A08959A938A93F1
:1099A00080E090E00091D204053011F0063099F487
:1099B00092E080917B03869587700091480306951D
:1099C0000770801B87FB0EF48C5FE82FF0E0E852F5
:1099D000FF4784918D5FB2DF992351F0882341F0D6
:1099E000082F0E94104FE6E7F4E001810062018336
:1099F00089919991089500E0009388000E94274F73
:109A0000E6E7F4E001810F7D0183EDEDF4E00081F4
:109A10000F77008393DF0C94B32D9A938A9340E1E0
:109A200050E02FEF30E007E713E00E94CA5B0E948E
:109A3000DA1F0E944725E6E7F4E0018100FF35C008
:109A40000091A703003439F40EE618E00E94725822
:109A5000C801409A09C0003309F07CC00CE618E048
:109A60000E947258C801419A20E00DE0F0E0E22F18
:109A7000EB58FC4F238B23950A95C1F70DE000931B
:109A800095030E94472527E733E00FE10E94A025B8
:109A90009C0108E40E94D2250E94352600916C02A8
:109AA00004FDFACF0E94282655C0038107FF3CC061
:109AB000409A00E00093B10340E030917B0420E045
:109AC00000E610E00E94BD5790E083E020E00DE04A
:109AD000E22FF0E0EF54FC4F1281E22FF0E0EB5860
:109AE000FC4F138B23950A9599F70DE0009395038E
:109AF0000E94472527E733E00FE10E94A0250EE6EC
:109B000018E00E9472589801092F08640E94D2251B
:109B10000E94352600916C0204FDFACF0E9428268F
:109B200093958A95B9F0D2CF0EE618E00E9472584C
:109B3000C8010E9447259C0108E60E94D22502C068
:109B40000E94352609B104700430D1F30E94282602
:109B50000E9489250E94CD1F0E94B32D00E0009332
:109B600088005A980091CC000F7E0093CC0040985A
:109B70004198E6E7F4E001810E7F018300E0009365
:109B80007C0403810F770383EAE7F4E001810E7F11
:109B9000018300916D00006200936D0000916D00E3
:109BA000006400936D0000916D00006800936D00EB
:109BB00006B5026006BD00E00093620189919991AB
:109BC000089521E0D0983CB536FF04C00DE1009324
:109BD000280214C027B5216027BD24B12F7324B9F2
:109BE000259A5198599A2091580121602093580143
:109BF0001DBD0CBD00E800934F0220E0022F089528
:109C000000E00CBDD09A04B10F7104B95198EFE493
:109C1000F2E000810F77008308950CC01DB517FF97
:109C20000AC02EB5F0E0E02FE955FC4F20830395E4
:109C3000093008F000E0499BF1CFE6E7F4E011813C
:109C40001160118300937C040895FA93EA933A9388
:109C50002A931A930A933FB7729A07B50E7F07BDEE
:109C6000DCDF01E008BD729807B5016007BD3FBFAA
:109C70000991199129913991E991F9911895FA93DE
:109C8000EA931A930A931FB7EEEDF4E000810064A3
:109C9000008306B50D7F06BD00916101026000934F
:109CA00061011DC0FA93EA931A930A931FB7ECED72
:109CB000F4E012C0FA93EA931A930A931FB7EDEDFA
:109CC000F4E00AC0FA93EA931A930A931FB7ECEDF3
:109CD000F4E00081006402C00081006800831FBFBF
:109CE00009911991E991F99118952C972883398355
:109CF0000B831C8302E00D8300E00E830F83088733
:109D000009878E010E947B2D013011F40E94CC58EE
:109D10002C960895EEEDF4E000810F7B0083E6E7DA
:109D2000F4E001810064018300916D000F7D0093D8
:109D30006D0000916D000F7B00936D0000916D0030
:109D40000F7700936D0003810062038300E00093AE
:109D5000DB043AE124E808E410E0C7CF0C94214684
:109D600000810F7700830895EDEDF4E000810F7717
:109D700000830091DB04002341F4009179040F7A01
:109D800000937904006200937904419B02C04198DA
:109D900001C0419A0091DB0403950093DB0409B1F3
:109DA000009502950F700695E6E7F4E0138114FD27
:109DB00004C01091DB041C3448F101810F7B018346
:109DC0000E94B32D00E00093880003E0009361013E
:109DD000E6E7F4E0038107FD0FC000916D0000622B
:109DE00000936D0000916D00006400936D00009180
:109DF0006D00006800936D00419800E00093DB0463
:109E000003810F7D0383EDEDF4E0AACFA7CF00918E
:109E1000770406FDA9CF05FF02C00E94FB4C089500
:109E200010916D001F7D10936D0010916D001F7BD0
:109E300010936D0010916D001F7710936D0036E048
:109E400024E810E049E152E00E948B5B86CF0E943B
:109E5000FE2D00E000938F00ECEDF4E000810F7721
:109E60000083E6E7F4E001810F77018300916D0044
:109E7000006200936D0000916D00006400936D001E
:109E800000916D00006800936D00089509BD19B53B
:109E90001017E9F708958A93FA93EA933A922A926F
:109EA0001A920A927A936A935A934A933A932A930C
:109EB0001A930A938FB70091E3011091CC001F7D94
:109EC0001093CC0010E81093E3010F7B0093E301A3
:109ED0000091E4010E7F0093E401E0ECF3E00081E7
:109EE000086000830091E80303FF02C00E94B1589C
:109EF0008FBF09911991299139914991599169918E
:109F000079910990199029903990E991F991899165
:109F100018958A93FA93EA933A922A921A920A929D
:109F20007A936A935A934A933A932A931A930A9389
:109F30008FB7E0ECF3E00081016000830091E8035B
:109F400000FF02C00E94B158D3CF0E949B2C0E94F8
:109F5000DB2C0E941B2D0E946B2D0E94BB2D5CD020
:109F6000013091F0FBD0013079F09DD0013061F0EB
:109F7000B8D0013049F0D6D0013031F06FD1013086
:109F800019F087D1013011F401E0089500E008953F
:109F900040984198389A399A5D9A5E9A5F9A559A94
:109FA000569A579A5B98539A5C9854985A9A529832
:109FB00000916D00006200936D0000916D000064DF
:109FC00000936D0000916D00006800936D000CB56A
:109FD0000F730CBD0DB50F740DBD00E00093790437
:109FE00002E000936B0000916D00046000936D002F
:109FF00006B5026006BD08958A9381E000E00093F3
:10A0000019044DE020E134E007EE13E00E94851EC4
:10A01000002309F480E0EAC08A9381E046E02DE164
:10A0200034E00DED13E00E94851E0023D9F5009168
:10A03000DD030ABB0091DE030F7101B90091DF035C
:10A0400002B91AB3D5980091E0030093150100916D
:10A05000E1030093160105E000931501009116013C
:10A06000036000931601009116010460009316012D
:10A070001ABBEDEDF3E00581017000FB56F4109181
:10A08000CA00102B1093CA0000000091CA0002FF02
:10A09000FBCF058107FD02C00E94261F08E00E9439
:10A0A000F61E80E0A3C09A938A9391E08EB142E0BD
:10A0B00023E234E00DED13E00E94851E002369F4D5
:10A0C0000091DD030C778378082B0093DD030EB934
:10A0D0000091DE030093F40390E0092F8991999198
:10A0E00008958A9381E045E025E234E00DED13E028
:10A0F0000E94851E0023A9F40091DD030093520104
:10A100000091DE03009353010091DF03009354019B
:10A110000091E003009355010091E1030093640175
:10A1200080E064C09A938A9381E09FB742E02AE27C
:10A1300034E00DED13E00E94851E002369F40091C8
:10A14000DD0300FF04C0F894759A769A9FBF0091D2
:10A15000DE030093560180E0082FC0CF8A9381E090
:10A1600045E02CE234E00DED13E00E94851E002353
:10A1700079F40091DD0306BD0091DE0307BD009177
:10A18000DF0300936B000091E00300936C0080E01C
:10A190002DC08A9381E042E021E334E00DED13E02D
:10A1A0000E94851E002379F40091DD0304B900911B
:10A1B000DE0305B9239A0091E70300FF02C02B9844
:10A1C00001C02B9A80E012C08A9381E042E023E331
:10A1D00034E00DED13E00E94851E002339F4009158
:10A1E000DD0307B90091DE0308B980E0082F8991EB
:10A1F00008958A9381E042E025E334E00DED13E019
:10A200000E94851E002339F40091DD030AB90091F4
:10A21000DE030BB980E0EACF8A9381E042E027E3D6
:10A2200034E00DED13E00E94851E0023B1F400918F
:10A23000CA0305FF04C00091DD0307FF0DC00091B4
:10A24000DD031091DE0304FF03C00E941E2C02C038
:10A250000E947C58802F01C080E0C8CF8A9381E0A3
:10A2600042E029E334E00DED13E00E94851E002357
:10A2700079F40091DD03007C0093DD031091CC00A4
:10A28000102B1093CC000091DE030E94172080E079
:10A29000ADCF8A9381E041E02BE334E00DED13E094
:10A2A0000E94851E002329F40091DD030E940E1FE9
:10A2B00080E09CCFF0E0E0E0B0E0A0E090E080E063
:10A2C00070E060E050E040E030E020E010E000E0CE
:10A2D000FE2EEE2EDE2ECE2EBE2EAE2E9E2E8E2EDE
:10A2E0007E2E6E2E5E2E4E2E3E2E2E2E1E2E0E2ECE
:10A2F0000895609700E000934F040093500440E1FC
:10A300002CE334E08E010E94851E002319F500EF36
:10A3100010E8E2E3F3E00083118304E011E8E4E3F2
:10A32000F3E00083118300E00093E1040093E20472
:10A330003E850D85E3EEF4E0008331830F850E94B6
:10A34000E920AE01495F5F4F9E012F5F3F4F0881BB
:10A350000E948B226096089501FB66F4AD9801E09F
:10A36000E2E3F3E020813181EBE4F4E02183328306
:10A3700010E012C000E00093A60100915904009380
:10A38000A101AE9800E0E4E3F3E020813181EBE449
:10A39000F4E02183328314E0009350041093E0042E
:10A3A00006EF12E0E5EEF4E0008311830EE113E026
:10A3B000E7EEF4E00083118303E00093560402E02B
:10A3C0000093570400E000934B0400934E0401E017
:10A3D0000093DF040093E20400934F040895BA93BE
:10A3E000AA9300914B04ACE4B4E0ED91FC9112E02F
:10A3F000019FE00DF11D0591F491E02F0995A991C0
:10A40000B991089500910002013041F000910002DD
:10A41000033021F0009100020630F9F400914E045F
:10A4200010910002011741F0EFE4F4E001810260B5
:10A43000018300910002BCC00091500401FF12C0D2
:10A440000E94932000914B04039500934B04EFE48A
:10A45000F4E001810D7F01830895EFE4F4E00181D0
:10A460000D7F0183089500B7006800BF00914B0481
:10A47000039500934B0408950091EB040023C1F071
:10A480000091EC040023A1F400E00093EB040E948F
:10A49000632D30E021E001E514E00E9444210091A9
:10A4A00058040093A10100914B04039500934B04C1
:10A4B00008950091EB04002301F10091EC040023C6
:10A4C000E1F400E00093EB040E94632D30E020E013
:10A4D00001E514E00E9444210091E0040093EC04A3
:10A4E00000E00093E0040091DF040E5F0093DF04BE
:10A4F00000914B04039500934B040895009195023D
:10A5000007FF2BC020E030E00091E10410E044E1BF
:10A5100050E00E948B5BA80106EF12E0040F151FAC
:10A520000E94E9210091E10403950093E104E4E92C
:10A53000F2E001810F7701830091500400FF08C011
:10A540000091E104023021F4009158040093A1012C
:10A5500000914B04039500934B0408950091EB0484
:10A56000002369F000E00093EB04EAE6F2E00381E7
:10A570000B7F038300914B04039500934B040895D4
:10A580000091EB04002351F0AF980091DF04009399
:10A59000EC0400914B04039500934B0408950E9432
:10A5A000C52000E000934F040093500400934B0437
:10A5B00000934E0408959A938A932C9786E493E52A
:10A5C00000E000934F04009350040091CC0004FF7E
:10A5D00004C00091010102FD02C00E94DA1F009137
:10A5E00057040370013011F483E393E58E01E8E230
:10A5F000F1E84CE050E00E94935BE6E5F4E0028174
:10A600000B8303810C83888799874093E1040C2F87
:10A610000E947B2D002379F400E000934B0401E0BD
:10A6200000934F0400915704037029F0EFE4F4E025
:10A630000181046001832C9689919991089500917C
:10A64000940207FD0FC00E94932000914B040395D4
:10A6500000934B04EFE4F4E001810D7F018300815E
:10A6600002600083089530E021E001E514E00E94DB
:10A6700044210091E10410E0E0915604F0E03197AC
:10A680000E171F0711F40E94B32D089530E020E04B
:10A69000ECCF0091950207FF3DC0E9EEF4E0208188
:10A6A00031812A5F3F4F008111810E94E921009191
:10A6B000E10403950093E1042091500422FF18C0A7
:10A6C000009157040370013019F406E413E50BC040
:10A6D000E091E104F0E0319600915604E017F0407B
:10A6E00039F403E313E5ECE1F2E0018312832B7FFD
:10A6F00020935004E4E9F2E001810F770183009197
:10A70000E10410915604011728F000914B040395C1
:10A7100000934B0408950E94A05B009157040370BE
:10A7200009F45CC0909156049F709A9580E0A0E077
:10A7300052C0E5EEF4E040815181465F5F4FE7EEA5
:10A74000F4E020813181E5EEF4E0008111810E9486
:10A75000D822E5EEF4E020813181205F3F4F008177
:10A760001181065F1F4F0E947323E5EEF4E0208104
:10A7700031812E5E3F4F00811181005F1F4F0E948B
:10A78000E623E5EEF4E00081F181E02F22893389B0
:10A79000E3EEF4E0008111810E944F242091E20455
:10A7A00030E0B0E02A0F331FF901E550FB4F008382
:10A7B0002091E2042A0FBB1FE22FFB2FE550FB4F35
:10A7C0001183E5EEF4E0008111810C5E1F4F0083E0
:10A7D00011838395AE5F891708F4ABCF00914B04CA
:10A7E000039500934B04E4E00C94A75B8A93FA93DF
:10A7F000EA933A922A921A920A927A936A935A9315
:10A800004A933A932A931A930A938FB7E5EFF3E0AA
:10A810000081006100830091EC0304FF02C00E94EC
:10A82000B15801E00093730409B5016009BD09B591
:10A8300001FFFDCF0FE00CBB00918F01046000937E
:10A840008F0109B50E7F09BD5998EEC18A93FA931D
:10A85000EA933A922A921A920A927A936A935A93B4
:10A860004A933A932A931A930A938FB7E5EFF3E04A
:10A870000081006200830091EC0305FF02C00E948A
:10A88000B15801E00093740409B5016009BD09B530
:10A8900001FFFDCF0FE00CBB00918F01046000931E
:10A8A0008F0109B50E7F09BDBFC18A93FA93EA9360
:10A8B0003A922A921A920A927A936A935A934A93F4
:10A8C0003A932A931A930A938FB7E5EFF3E0008146
:10A8D000086000830091EC0303FF02C00E94B1589E
:10A8E0000091D603002369F00091D801077F0093FF
:10A8F000D80100E000939A01BF9A01E00093400361
:10A900003FC0BF9B3DC00091FD030093DD0100915E
:10A91000FE030093DC010091FF030093DB01009133
:10A9200000040093DA010091FA0300939A01009168
:10A93000FB030093A5010091FC030093A401009187
:10A9400001040093D9010E9914C0009102040093F0
:10A9500070010091030400936C01009104040093C2
:10A960006D010091050400936E01009106040093AF
:10A970006F010091070407FD02C0BF9801C0BF9A94
:10A9800053C18A93FA93EA933A922A921A920A92BC
:10A990007A936A935A934A933A932A931A930A930F
:10A9A0008FB7519A599AE29B0CC0E5EFF3E0028110
:10A9B000046002830091EE0302FF02C00E94B158BE
:10A9C000E29AE39B0CC0E5EFF3E0028108600283AA
:10A9D0000091EE0303FF02C00E94B158E39AD89B96
:10A9E0000CC0E5EFF3E00081016000830091EC030F
:10A9F00000FF02C00E94B158D89A01E0009375048C
:10AA00000FE00CBB00E000938F010EC18A93FA9314
:10AA1000EA933A922A921A920A927A936A935A93F2
:10AA20004A933A932A931A930A938FB7409B02C092
:10AA3000409801C0409A0091D50300FF03C00E94D6
:10AA4000F456D6C00091D6030130B1F400917101E3
:10AA500000FF09C000E000934003009171010E7FE8
:10AA60000093710107C00091710101FF03C002E072
:10AA700000934003D99ABCC0DA9B0CC0E5EFF3E029
:10AA80000081046000830091EC0302FF02C00E9479
:10AA9000B158DA9AD99B9EC0E5EFF3E000810260DD
:10AAA00000830091EC0301FF02C00E94B158D99AC3
:10AAB00000914A04043018F003E000934A04BF9B5D
:10AAC00089C000914A0410E1019FF001E65FFB4F4D
:10AAD00003810093DD0100914A04019FF001E65FCC
:10AAE000FB4F04810093DC0100914A04019FF001B7
:10AAF000E65FFB4F05810093DB0100914A04019F53
:10AB0000F001E65FFB4F06810093DA0100914A04F1
:10AB1000019FF001E65FFB4F008100939A010091D5
:10AB20004A04019FF001E65FFB4F01810093A501FC
:10AB300000914A04019FF001E65FFB4F0281009300
:10AB4000A40100914A04019FF001E65FFB4F0781D9
:10AB50000093D9010E992DC000914A04019FF00184
:10AB6000E65FFB4F00850093700100914A04019F4E
:10AB7000F001E65FFB4F018500936C0100914A04F0
:10AB8000019FF001E65FFB4F028500936D0100918C
:10AB90004A04019FF001E65FFB4F038500936E01BD
:10ABA00000914A04019FF001E65FFB4F048500938A
:10ABB0006F0100914A04019FF001E65FFB4F05859C
:10ABC000002311F4BF9801C0BF9A00914A04039575
:10ABD00000934A04D89B0CC0E5EFF3E000810160CC
:10ABE00000830091EC0300FF02C00E94B158D89A84
:10ABF0001BC08A93FA93EA933A922A921A920A9283
:10AC00007A936A935A934A933A932A931A930A939C
:10AC10008FB7E5EFF3E00181026001830091ED035E
:10AC200001FF02C00E94B1588FBF0991199129916B
:10AC30003991499159916991799109901990299087
:10AC40003990E991F991899118958A93FA93EA9349
:10AC50003A922A921A920A927A936A935A934A9350
:10AC60003A932A931A930A938FB7E5EFF3E00181A1
:10AC7000016001830091ED0300FF02C00E94B15802
:10AC8000D3CF8A93FA93EA933A922A921A920A922B
:10AC90007A936A935A934A933A932A931A930A930C
:10ACA0008FB7F89401E00093EB047894E5EFF3E0BC
:10ACB0000081006800830091EC0307FF02C00E943E
:10ACC000B158B2CF8A93FA93EA933A922A921A929F
:10ACD0000A927A936A935A934A933A932A931A93CD
:10ACE0000A938FB7E5EFF3E00281016002830091E0
:10ACF000EE0300FF02C00E94B15896CF8A93FA93E8
:10AD0000EA933A922A921A920A927A936A935A93FF
:10AD10004A933A932A931A930A938FB7E5EFF3E095
:10AD20000281026002830091EE0301FF02C00E94D3
:10AD3000B1587ACF00E00093F5030093F603009337
:10AD4000F7030093F8030093F90308950130E9F441
:10AD500042E024E038E003E415E00E94851E009103
:10AD6000430500936B050091440500936C05009129
:10AD7000F60402FD03C000916B0505C000916B0550
:10AD800010916C05010F0093F90400E00093940109
:10AD90000093990100939A01BF9A0091F9040093DE
:10ADA000A50102E00093D8010091F60400FD14C053
:10ADB00000E00093DD010AEC0093DC0100E0009369
:10ADC000DB010093DA0108ED0093D9010091F90449
:10ADD000085F0093A40108950091F9040093A40171
:10ADE00000E00093D901089506E00BBB0091FA043E
:10ADF00003950093FA040230C8F0BF98D89B12C0A4
:10AE000004EF0093F80401E00BBB0091FA04033057
:10AE100021F503E00E94464F0091F904069506953E
:10AE2000069514C000EF0093F804EFCF0130A9F4A9
:10AE3000F0CF19B3E091F704F0E0E15EFA4F108330
:10AE40001091F70413951093F7040A95002389F7DE
:10AE500000E808BB00E00E94464F00911F050295E4
:10AE60000F701091FA04113039F4013021F0102FD5
:10AE700014501530B0F46ACF1230B9F41091F804C0
:10AE8000103FA1F4053019F400E00093D8010091BF
:10AE9000A60104FF1BC0AF9800E00093EB04AF9A3B
:10AEA000089502E00093D80109C058F00091F80419
:10AEB000003F39F000E00093D80102E00093FA046B
:10AEC000089500E00093D8010093D90108952FB7A9
:10AED000F89400E00093FF0007E60093FC0007E50C
:10AEE0000093FD002FBF20E10EE212E00E9404203B
:10AEF00000E800933E020E94081100912A0207FD1B
:10AF00003BC0EEE2F2E010810FE02081220F3181A0
:10AF100037FB30E030F9232B21930A95B1F70081FC
:10AF2000000F008317FB26F407E810811027108319
:10AF3000EEE2F2E010810FE02081220F318137FB39
:10AF400030E030F9232B21930A95B1F70081000FEF
:10AF5000008317FB26F407E8108110271083D6988A
:10AF60002EE232E001E811E00E949011D69AE1EB66
:10AF7000F3E001810160018308950E949E5B2497A4
:10AF8000C801422EB32F542E2FB7F8944092FF00E1
:10AF90000DEB0093FC0007E50093FD002FBF00E8D8
:10AFA0000093B10300E00093B20344E020EB38E0EB
:10AFB00006EB13E00E94851EA02F0091B9030093B9
:10AFC000B3030091B8030093B4030091B703009357
:10AFD000B5030091B3031091B6031093B30300932C
:10AFE000B6030091B4031091B5031093B40300931A
:10AFF000B50344E09C0107EB13E00E94851EA02BE3
:10B0000009F069C0252D10E2042D0E945C105FDF5D
:10B010000091B20300FF5DC0B093BB0320E009E0E4
:10B0200030E0F901EF54FC4F1281F901E65DFD4F6C
:10B03000148323950A95A9F73093370226E008E395
:10B0400012E00E940420EAE2F2E002810F7D028316
:10B050000E94081100912A0207FD39C000912E02BA
:10B060000093BC0300912F020093BD0300913002B6
:10B070000093BE03009131020093BF03E1EBF3E0C4
:10B080000181026001833091BA032091B9031091CC
:10B09000B8030091B7030F5F1F4F2F4F3F4F088337
:10B0A00019832A833B8344E09C018E010E94BA1ECF
:10B0B000002311F006E310C0FF99FECFE1EBF3E0AF
:10B0C00001810460018300810F77008307C007E3DB
:10B0D00003C008E301C005E3009328022496E6E0DC
:10B0E0000C94A55B229742E098018E010E94851E78
:10B0F000198108812296089521E031B1D0984CB58C
:10B1000046FF05C031B90DE10093280218C024B1F3
:10B110002F7324B9259A519820916B0021602093B8
:10B120006B0020916B002D7F20936B0027B5216071
:10B1300027BD1DBD0CBD00E800934F0220E0022F8B
:10B14000089507B50E7F07BD00E00CBDD09A04B18D
:10B150000F7104B95198EFE4F2E000810F7700839A
:10B160000895FF93EF93F5B1E091E703F860E0FFF6
:10B17000F77FF5B9F77FE0FFF860F5B9EF91FF9140
:10B180000895E091C003E068E093C003E091E80314
:10B19000E7FD0E94B15808950E94011FFFCF8A93D6
:10B1A000FA93EA933A922A921A920A927A936A93BB
:10B1B0005A934A933A932A931A930A938FB700911A
:10B1C000E6010F7E0093E601E0ECF3E00081006110
:10B1D00000830091E80304FF02C00E94B1588FBFB2
:10B1E00009911991299139914991599169917991CF
:10B1F0000990199029903990E991F99189911895C0
:10B200008A93FA93EA933A922A921A920A927A933A
:10B210006A935A934A933A932A931A930A938FB74D
:10B220000091CC000D7F0093CC00E0ECF3E00081B6
:10B23000006200830091E80305FF02C00E94B1583C
:10B24000CECF1A930A931FB70091CC000E7F0093C4
:10B25000CC001FBF099119911895EF93FF93EFB799
:10B26000EF93E0910C02F0910D020995EF91EFBF81
:10B27000FF91EF911895EF93FF93EFB7EF93E09164
:10B280000E02F0910F020995EF91EFBFFF91EF9140
:10B290001895EF93FF93EFB7EF93E0911102F091C0
:10B2A00012020995EF91EFBFFF91EF911895EF937F
:10B2B000FF93EFB7EF93E0911302F0911402099519
:10B2C000EF91EFBFFF91EF911895EF93FF93EFB7D9
:10B2D000EF93E0911602F09117020995EF91EFBFFD
:10B2E000FF91EF911895EF93FF93EFB7EF93E091F4
:10B2F0001802F09119020995EF91EFBFFF91EF91BC
:10B300001895EF93FF93EFB7EF93E0911A02F09146
:10B310001B020995EF91EFBFFF91EF911895EF9305
:10B32000FF93EFB7EF93E0911D02F0911E02099594
:10B33000EF91EFBFFF91EF911895EF93FF93EFB768
:10B34000EF93E0911F02F09120020995EF91EFBF7A
:10B35000FF91EF911895EF93FF93EFB7EF93E09183
:10B360002102F09122020995EF91EFBFFF91EF9139
:10B3700018958A93FA93EA933A922A921A920A9229
:10B380007A936A935A934A933A932A931A930A9315
:10B390008FB7E0911D02F0911E0200E0E030F0074F
:10B3A00009F009958FBF0991199129913991499116
:10B3B0005991699179910990199029903990E99161
:10B3C000F99189911895EF93FF93EFB7EF93E0917F
:10B3D0002402F09125020995EF91EFBFFF91EF91C3
:10B3E0001895EF93FF93EFB7EF93E0912602F0915A
:10B3F00027020995EF91EFBFFF91EF9118950C94FB
:10B4000000001895EF93EFB7EF93ECB1E160ECB962
:10B41000E0913C03E160E0933C03E091EF03E0FD49
:10B420000E94B158EF91EFBFEF91189500E00093A3
:10B43000420300934103009394010093990103E0B8
:10B4400000939A0104E00093A5010093A401BF9822
:10B45000BD9A03E00E94464F00E40093D70100E844
:10B4600008BB07E00BBB00E00E94464F009166015D
:10B470000D7F009366010AE00093D80100E000937D
:10B48000D60100917101066000937101089503E0F7
:10B490000E94464F09B302950F70069500933F0333
:10B4A000033029F404E20093A5010093A40100E015
:10B4B0000C94464F249703E00E94464F00913F03AF
:10B4C0000A9519F00250C1F17CC0CF9B7AC000915F
:10B4D0007101097F0093710102E30093A5010093BC
:10B4E000A40100E40093D70100E808BB00E000934A
:10B4F000D6010FEF09BB00EF09BB0FEF00937001FE
:10B5000002E300936C0144E020EB38E08E010E94DE
:10B51000851E402F20E004E030E0442329F4FE01A2
:10B52000E20FF31F108101C015E519BB23950A95A1
:10B53000A1F700EC09BB40C000914203002341F495
:10B5400001E000934203CF9B3CC00093410339C00C
:10B5500000914103002300917101A1F4097F009340
:10B5600071010AE00093A5010093A40100E4009397
:10B57000D70100E808BB00E00093D6010BEB09BB44
:10B5800000E813C0097F009371010AE00093A50150
:10B590000093A40100E40093D70100E808BB00E099
:10B5A0000093D6010BEB09BB00E409BB0AEA009348
:10B5B00070010AE000936C01009171010160009339
:10B5C000710100E00E94464F249608958A93FA93F1
:10B5D000EA933A922A921A920A927A936A935A9327
:10B5E0004A933A932A931A930A938FB76B9B0CC092
:10B5F000ECE3F3E00081086000830091EF0303FFB8
:10B6000002C00E94B1586B9A6A9B0CC0ECE3F3E055
:10B610000081046000830091EF0302FF02C00E94DA
:10B62000B1586A9A699B0CC0ECE3F3E000810260B8
:10B6300000830091EF0301FF02C00E94B158699A94
:10B640008FBF099119912991399149915991699126
:10B6500079910990199029903990E991F9918991FE
:10B66000189500E000933C0300933D0300933E03D4
:10B6700000933F030093400300934103089507C0E4
:10B680004A95F90151919F01F80151938F0144238B
:10B69000B9F7089550E005C03A95F801E30FF51F9A
:10B6A00020833323C9F70895442369F04A9550E075
:10B6B000F801E40FF51F6081F901E40FF51F5081D7
:10B6C000651791F301C002C000E0089501E00895FC
:10B6D000542F4A95552349F0F80151918F01F901F2
:10B6E00061919F015617A1F3EFCFF0CF000088952D
:10B6F000FECF0FEC0DBF05E00EBFC0E0D6E00E940C
:10B70000B05B002311F00E94DF5B0E9439450E946C
:10B71000765B0C94765B149F102D059F100D049F93
:10B72000002D110D0895AF93BF93D80101900D9294
:10B7300041505040D9F7BF91AF9108955A924A9223
:10B74000BA93AA939A938A9308955D804C80BB81A3
:10B75000AA8199818881F0E0EC0FFD1FEF01089527
:10B7600001E00895202F212BA1F02D9137FF40817A
:10B7700037FD4491EF5FFF4F3F4F241739F018F426
:10B780000FEF1FEF089501E010E008950150104001
:10B7900061F70895F80101C02193BA01415050406A
:10B7A000672BD1F7089520E02D9301501040E1F769
:10B7B000089525912D9301501040D9F708958CE1FB
:10B7C00091E8FC0105911491FC013296A591B49188
:10B7D000FC01349625913491422F432B19F0F90145
:10B7E000E8DF01C0E0DF069611E88832910748F3F0
:10B7F000089504040557022203010500000000011A
:10B800000101010100010100000000FFFFFFFFFF37
:10B81000FFFFFFFFFFFFFFFFFFFFFFFFFFFFFFFF38
:10B82000FFFFFFFFFFFFFFFFFFFFFFFFFFFFFFFF28
:10B83000FFFFFFFFFFFFFFFFFFFFFFFFFFFFFFFF18
:10B84000FFFFFFFFFFFFFFFFFFFFFFFFFFFFFFFF08
:10FFF000020500FFFFFFFFFFFFFFFFFFFFFF175D91
:00B6F20157
:00000001FF
