:100000000C947B091895FFFF1895FFFF1895FFFFCB
:100010001895FFFF1895FFFF1895FFFF1895FFFF34
:100020001895FFFF1895FFFF1895FFFF1895FFFF24
:100030001895FFFF1895FFFF1895FFFF1895FFFF14
:100040000C94D6081895FFFF1895FFFF1895FFFF31
:100050001895FFFF1895FFFF1895FFFF1895FFFFF4
:100060001895FFFF1895FFFF1895FFFF1895FFFFE4
:100070001895FFFF1895FFFF0C94F7001895FFFFE8
:100080000C94C7051895FFFF1895FFFF1895FFFF03
:100090000C94C7041895FFFF1895FFFF1895FFFFF4
:1000A0000C94E4081895FFFF1895FFFF1895FFFFC3
:1000B0001895FFFF1895FFFF1895FFFF1895FFFF94
:1000C0001895FFFFFFFFFFFFFFFFFFFF12BD01BD00
:1000D000EE9AEE99FECFB69B03C009EFA02EB69A1A
:1000E00008950E948B09812F16FB4EF442E0E0E058
:1000F000F8E0049FE00DF11DB4969F0115C0107645
:10010000103242E020E038E049F406950695069565
:100110000E7110E0200F311F265B05C00F70049F89
:10012000200D311D265D3F4F0AE712E00E94FF01BE
:1001300000EFA01671F5B0917B0200917A02A02F1A
:1001400083FB2EF509E10E94B40102FB1EF05096DC
:100150008D011EC08D01BADF20E030E000E026D026
:1001600000E020918001F0E0E02FE458FD4F208373
:1001700003950031B0F300E0F0E0E02FE458FD4FCC
:100180001081109380010395003118F4F5CF1B2FD7
:100190009DDFE4E00C94920906C0F80131918F01D3
:1001A000309381012A952223C1F7089517E018BFE3
:1001B000BB2404681DB3102B1DBB02C07894889526
:1001C000F894BB20D9F3EA987894F79B04C0F79A87
:1001D00007EFA02E0895022F032B41F000E11091AC
:1001E0008101F90111939F010A95C9F708951A93A6
:1001F0000A931FB70FEFB02E08B70E7F08BF1FBFBF
:100200000991199118959A938A93D69800E20DBB9B
:1002100042E080E098E082969C010AE712E00E94AA
:10022000FF0141E030917B0220917A020CE812E05C
:100230000E94FF01182D107200918C0252DF00EF16
:10024000A01609F52F2D07E512E0A6DF00E1F01654
:10025000D0F400E010E0F801E55DFD4F2281F801E7
:10026000E458FD4F208303950430A8F3003130F4A7
:10027000F801E458FD4F10830395F8CF20E12F19C2
:100280000CE712E089DF82FA9EF500EFA01681F5F7
:1002900021E332E000E08ADF00EFA01681F5009153
:1002A0000E020695069506952F2D200F01C02A9562
:1002B000002381F00A95F0E0E02FEF5CFD4F108104
:1002C000F0E0E22FEA5AFD4F3081131781F306EF79
:1002D000A02E15C0182D107200E2102700918C027C
:1002E00000DF00EFA01621F401E000938D0203C0AF
:1002F00000EFA01621F421E332E000E057DFD69AA8
:100300008991999108950E9489092801D901842F22
:10031000D69800E20DBB46FB26F4437040938C0256
:1003200010C042E022E238E00AE712E00E94FF013A
:1003300041E030917B0220917A020CE812E00E94A9
:10034000FF01182F187600918C02CBDE00EFA0166B
:1003500039F420E1820120DF9D018870082F26DF1B
:10036000D69AE6E00C949009FF99FECFF89400230A
:1003700011F409E205C0013011F409E301C009E1FB
:1003800007BFC895002D78940091100008959A93A6
:100390008A93C8010E94220900EFA016B1F4FF99C8
:1003A000FECFF894012E882311F409E205C08130B4
:1003B00011F409E301C009E107BFE8957894082F1B
:1003C000D3DF901711F00BEFA02E8991999108952A
:1003D000BA93AA93D8010D9103BD0D9100933B01EF
:1003E0000D9100933C010D9100933D011D9100E0A2
:1003F000CEDF1C9101E0CBDFA991B9910895F801FE
:100400006FB7203809E0300738F450E08901040F55
:10041000151F0138194010F002EF03C0413118F0E8
:1004200008EFA02E0895FF99FECFF89432BD21BDAC
:10043000B09A00E003C010B5119303950417D8F3E8
:10044000B69B03C009EFA02EB69AB59B03C001EF7F
:10045000A02EB59AB0986FBF08950E94890928010F
:10046000C901A42FBFB70E94220900EFA01689F589
:10047000983038F410E09C012A0F311F21303840A9
:1004800010F002EF03C0A131D8F008EFA02E21C078
:10049000FF99FECFF894A895FE9A92BD81BDF20116
:1004A00001912F0100BD0196AA9521F001B50F70B1
:1004B0000F30A1F70FB30F7C0FBBFA9AF99ABFBFA9
:1004C000AA2331F7B59B03C001EFA02EB59AFF997F
:1004D000FECFE6E00C949009DD240F98D0929401B1
:1004E00008E00093A5010093A4010FE30BBBD09299
:1004F000D80100E407BB03E00E94440900E0009338
:10050000D90100E40093D701C79A00E00093D60117
:1005100003E309BB00E00E94440905E008BF0B9813
:1005200000E00093860008EC0093870004E000934D
:10053000880008E204BBA79A0E9802E000937001BD
:1005400008E000936C0100E10093650101E0009375
:10055000710102C078948895F894DD20D9F3BE9893
:10056000009171010E7F009371017894A79801B1F9
:10057000086C01B908950E980F9800E800938E0159
:1005800000E000938E01009124020093730100E8C3
:1005900000938E0103E000938E01009112020093FC
:1005A0006701009113020093680100911402009307
:1005B00069010091150200936A01009116020093EF
:1005C0006B010EE00DB900916601026000936601B7
:1005D00000910A020093650100E0009394010093EA
:1005E000990100939A0104E00093A50108E00093AB
:1005F000A40103E00E94440900E00093D9010093A4
:10060000DB01009117020093DA0100E00093DD01A5
:10061000009118020093DC0100E80093D90100E486
:100620000093D701C79A07E00BBB00E007BB0E940D
:10063000440904E00093D80100E00093D601992416
:1006400008E0C02E00912302002389F00093A1014D
:1006500000E10093A60194BC00911102002391F0E7
:100660000AEF05BB009111020093A10110C0009197
:100670001102002351F00093A10100E10093A601B3
:1006800001E004BD0AED05BB02C002E004BD02E0CA
:10069000009371010F9A0E9A089512E0009156028C
:1006A000CC24013041F482FA20910D021EF53091E4
:1006B0000E02230F1FC0043011F428E11BC00530C7
:1006C00011F418E10DC0063011F420E313C0073017
:1006D00061F0083011F428E90DC00C3021F418E065
:1006E000C12E16E008C00E3011F428E003C00D3012
:1006F00011F428E2C22E1093D801CC20F9F0BF9A51
:10070000C092A5010C3089F400E00093DD01009156
:100710001A020093DC0100E00093DB010091190252
:100720000093DA01C092A4011AC080FA46F00130A9
:1007300041F4C092A40100E00093D901089505306E
:10074000C1F700E00093DD0100911A020093DC0183
:1007500000E00093DB01009119020093DA0100E947
:100760000093D9011CC000915902000F000F000F27
:10077000C02E02E00093D80100E00093DD0100915B
:100780001A020093DC0100E00093DB0100911902E2
:100790000093DA0100E90093D901C092A5010C2D64
:1007A000085F0093A401089500915702C02E0C2DFC
:1007B000DCCF6B9B02C00CEF03C0D89B02C004EFE0
:1007C00019C000EFFDCF6B9B0AC00CEFA02E00E01C
:1007D0000093D801AC98AF9806E0E02E0895D89B1E
:1007E00002C004EFF3CF009156020F3010F003EF78
:1007F000EDCF00EFA02E08950091A60104FF16C0D2
:10080000AF9800912302002371F000E004BD009135
:1008100023020093A101AF9A00911102002331F04D
:100820000093A101089501E004BDAF9A08950E94CC
:100830008B09802FA1E3B2E090911C0200911B0272
:10084000900F082F000F000F000F192F100F0F9897
:100850000E98009121020093700100911C020093F8
:100860006C0190936D0180FA46F00A2D007F0039EB
:1008700021F00A2D007F003161F400E00093940123
:1008800000939A0110936E011093A5011093A40197
:100890000EC090939401092F0F7300939A01012FBA
:1008A000085F00936E011093A5010093A40102E07C
:1008B0000093D80103E00E94440900E00093D901AD
:1008C00080FA5EF0009119020093DA0100911A0299
:1008D0000093DC0100E90093D90100E40093D70103
:1008E000C79A00E00093D601882309F444C007C0EA
:1008F000F0E0E02FE75FFD4F148919BB0395192F36
:10090000169516951695011798F300E003C01D91F2
:1009100019BB03950817D8F300E00E94440905E0CD
:1009200008BF02C078948895F89404B50230D1F7D6
:1009300000E800938E0100E000938E0100910C020C
:100940000093730100E800938E0103E000938E0191
:1009500001E000937101789405E008BF02C078942B
:100960008895F8940091710100FDF9CF00E00093A3
:10097000D801789407C00E944409AC98AF9800E071
:10098000009371010F9A0E9AE4E00C9492099A93E5
:100990008A93FA93EA933A922A921A920A927A9353
:1009A0006A935A934A933A932A931A930A939FB756
:1009B00081B10F980E980091710100FF09C000915C
:1009C00071010E7F0093710100E00093D901CCC04A
:1009D000A0925502D99ADA9A00E1E01699F403E060
:1009E0000E94440909B302950F7005BD00E808BBD9
:1009F00000E00E94440901E1E02EBF9A02E000936A
:100A0000D801B2C001E1E01671F4DDDE00EFA016FE
:100A100031F4EE24BF9804E00093D80191C0BF9850
:100A20000FEF05BDA1C0EE2099F4079A03E00E94E4
:100A3000440909B302950F700093560200E808BB01
:100A400000E00E94440999249394E92C26DE8CC08E
:100A500001E0E01639F5B7DE00EFA01609F5CC206D
:100A600089F4009171010D7F00937101009166017D
:100A70000D7F0093660107E0E02EBF9808B70E7F58
:100A800008BF72C000915602053011F403E003C0A4
:100A90000C3019F402E1E02E53C002E0E02E4FC00A
:100AA000BF9862C002E0E01619F005E0E01641F5DB
:100AB000009171010D7F00937101009166010D7F1E
:100AC0000093660107E0E02E74DE00EFA01609F047
:100AD0004BC003E00E9444090C2D0695069506952F
:100AE00008C019B3F0E0E92DEA5AFD4F1083939442
:100AF0000A950023B1F7C79A00E00E94440934C068
:100B000003E0E01699F40E94440909B300935702E8
:100B100009B30093580209B30093590204E0902EE0
:100B2000C79A00E00E9444091EDE1CC004E0E016E3
:100B300049F405E0E02E47DE00EFA016A9F4BF98C7
:100B40005BDE12C002E1E01679F403E00E94440982
:100B500009B30093570202E0902EC79A00E00E946A
:100B6000440922DE04E0E02E81B99FBF099119916A
:100B700029913991499159916991799109901990E7
:100B800029903990E991F9918991999118952A9331
:100B90001A930A932FB711B10E980F980091710113
:100BA0000D7F00937101009166010D7F0093660136
:100BB00000E00093D9016A9B05C004E00DB962987A
:100BC000609806C0699A6B9A0BB30F630BBB009ACF
:100BD00007E0E01639F006E0E01621F0079B02C0BE
:100BE00005EFA02E07E0E02E08B70E7F08BF0091AA
:100BF0001102002351F0AF98009111020093A1015E
:100C000001E004BD0AE905BB02C0AC98AF9811B978
:100C10002FBF099119912991189580E0F89400EF60
:100C2000A02E42E220E038E009E012E0FAD2EE2401
:100C300041E030912A022091290207E012E0F1D22E
:100C400044E028E738E003E012E0EBD20E9809B761
:100C500000FF02C0609A14C0E7E0F2E0008101FDED
:100C60000CC0629A00810260008341E030912A0248
:100C7000209129028F010E942D020E9A0C940040AF
:100C80000FEF0ABB01B902B900E80093E3018093BA
:100C9000E3018093CA00009122020770D02E00E881
:100CA0000093E501D092E50146E02EEA38E00BE240
:100CB00012E0B7D243E025EF38E000E012E0B1D215
:100CC0000F9800912B020093F20100912C020093E7
:100CD000F1010E9800910B02007F1CB1102B1CB982
:100CE000649B05C00091660104600093660100E802
:100CF00000938E0180938E0100910C02009373018A
:100D00000D98009100020093F901009101020093F7
:100D1000FA01009102020093FB0100E800938E01AA
:100D200003E000938E01009103020093A90100915A
:100D300004020093A801009105020093A70100910D
:100D400006020BBF0FEF01B98090090200910D025E
:100D5000069506950695F02E08E100936E00009129
:100D60000F0200936E00779841E0309128022091A5
:100D7000270208E012E055D2009108020F7100939B
:100D8000080280938E0280B90FEF05BDDD24D39455
:100D900091E0AA24AA9480938D02789487FA4EF465
:100DA0000E946C0206C092E00098079808B70160A4
:100DB00008BFA8959130F1F40E94BB0205E008BF7E
:100DC00007E001C08895F894E0167894D9F7009B65
:100DD000EACF0799E8CF0091080206FF03C000E1BF
:100DE000E02E01C0EE240FEF05BD0F98AC98AF9830
:100DF0000F9ADACF9230C9F408E0E02E02C078945E
:100E00008895F89404B5013019F004B50230B9F7AB
:100E1000789419D0802F93E00091080206FF03C058
:100E200000E1E02EC6CFEE24C4CF933051F4082F5A
:100E30000E94170400EAA01621F40E9862986098A8
:100E40000E9A91E0B6CF0E948C09229700E00093A1
:100E50008E0280915602E8E0F2E0008106FF0EC0AB
:100E600015B50F70101751F005B50F3039F005B5F5
:100E70000E3009F095C1008104FF92C100EFA01669
:100E800009F086C1882371F500E000933102A0E0EB
:100E9000EA2FF0E0E55DFD4F0281EA2FF0E0EF5C24
:100EA000FD4F0183A395A43098F3A5E000910802BB
:100EB00007FF69C104FF4FC10E944909F89404B5B6
:100EC000023071F40F9800E80093A1010AEB05BB12
:100ED0000F9A00918E020A9500938E0201E004BDE4
:100EE000789451C1813061F40E94030100EFA01693
:100EF00009F4C9C0A1E00A2D0F710093310243C16A
:100F0000823019F400915502CBC08330D1F4E7E070
:100F1000F2E000810D7F008342E0E0E0F8E0B0966F
:100F20009F018E010E94FF0100EFA01639F441E0FD
:100F30003981288107E012E00E942D020A2D0F73EB
:100F4000AFC0853039F0883029F0843019F0863010
:100F500009F07EC082FA2EF400918D02013009F072
:100F600070C0009158020883009157020983A09134
:100F70005902AF730091590214E0019F912D853001
:100F8000E9F4112071F0A031B1F41A94912D986414
:100F9000492F2AE532E089010E94830100EFA01663
:100FA00039F44A2F398128810AE512E00E942D0286
:100FB0000A2D0F7575C008EFA02EFACF8830C1F446
:100FC000112061F01A94912D9864492F2AE532E09E
:100FD00089010E94830100EFA01639F440E13981B4
:100FE00028810AE512E00E942D020A2D0F7858C0D0
:100FF000863039F407E512E00E94E8010A2D0F76E9
:101000004FC04A2F3981288102E312E00E94FF017C
:10101000992369F0A03149F49A959064492F22E30D
:1010200032E089010E94830102C008EFA02E0A2D40
:101030000F74009331020A2D0F7011F4A395A3C011
:1010400088C006EFA02E082F0295007F066028C0FA
:10105000873099F442E022E238E08E010E94FF01DD
:1010600000EFA01639F441E03981288107E512E04C
:101070000E942D020A2D0F7713C0893071F4009160
:101080005502003131F4A0910E02A695A695A695C1
:101090007AC008EFA02E08E903C08A3021F400EAE4
:1010A0000093310256C08B3069F444E029EA38E0FD
:1010B00002E312E00E94FF010A2D0F7B0093310230
:1010C000A5E061C08C3069F4F0912602E091250220
:1010D00009950A2D0F7C00933102A0913202AE5F78
:1010E00052C08D30D1F50091570210912D02011799
:1010F00091F50091580210912E02011761F50091AF
:10110000590210912F02011731F500915A021091E6
:101110003002011701F542E02EE138E08E010E9415
:10112000FF0100915B020F7000935B0241E0398187
:1011300028810BE512E00E942D020A2D0F7D0093FD
:10114000310200910802007E10915B02012B009396
:101150000802A1E018C0A0E016C08E30A1F41081F2
:101160001F7100915702007C102B108300EE00933A
:101170003102A1E00091CA0017FF02C0026001C065
:101180000D7F0093CA008295807F8F60A82209C0DE
:101190008295807F8F60A822A0923102A1E001C0D9
:1011A000A0E00A2F2296E3E00C9493091A930A9385
:1011B0001FB7DD2029F4DD24D39408B70E7F08BFC4
:1011C0001FBF0991199118952A931A930A932FB763
:1011D00011B10F9804B5002341F4009111020023CE
:1011E00021F0AD9801E004BD16C000918E020023ED
:1011F00031F402E004BD08B70E7F08BF0CC000E860
:101200000093A101AE9805B3006A05BB00918E0260
:101210000A9500938E0211B92FBF09911991299156
:101220001895FF99FECF32BD21BDB09A20E005C0D0
:1012300030B5F80131938F0123952417C8F300EEE0
:1012400006BB0895009110020F70E9F0D49800E0F9
:101250000093E60101E00ABD009110020F780064DE
:101260000093E60106E000000A95E9F70AB501607F
:101270000ABD06E000000A95E9F70AB500FF02C0C2
:101280000AEFA02ED49A089509BD19B51017E9F7F1
:10129000089509980B9806E202BB00E000937600DF
:1012A0000093750008E00093740000E204BB00E0C6
:1012B0000093880002E00093860008E00093870016
:1012C000A79A979A0091590101FFFCCF00918400E1
:1012D0000370000F000F00938E0203E0009359018A
:1012E00007E00093D2019798A798099A0B9A08955E
:1012F00000008895FECF0FED0DBF05E00EBFC0E0EA
:10130000D6E00E949B090E940D060E9478090C9469
:1013100078095A924A92BA93AA939A938A93089513
:101320005D804C80BB81AA8199818881F0E0EC0FBF
:10133000FD1FEF010895F0E0E0E0B0E0A0E090E0F4
:1013400080E070E060E050E040E030E020E010E05D
:10135000FE2EEE2EDE2ECE2EBE2EAE2E9E2E8E2EED
:101360007E2E6E2E5E2E4E2E3E2E2E2E1E2E0E2EDD
:1013700001E00895FFFFFFFFFFFFFFFFFFFFFFFFFB
:10138000FFFFFFFFFFFFFFFFFFFFFFFFFFFFFFFF6D
:10139000FFFFFFFFFFFFFFFFFFFFFFFFFFFFFFFF5D
:1013A000FFFFFFFFFFFFFFFFFFFFFFFFFFFFFFFF4D
:1013B000FFFFFFFFFFFFFFFFFFFFFFFFFFFFFFFF3D
:101FF000FFFFFFFFFFFFFFFFFFFFFFFFFFFFF813E4
:10200000820001000000000088020C0000000000B7
:1020100000000000860200800000000000000000B8
:102020008803480000000000000000008000FF005E
:102030000000000043267A269526FF2620275C27ED
:10204000AC27CE270028292843267A269526FF2666
:1020500022275C27AB27292843267A269526FF26A8
:10206000462B492B2928C22B7A269526FF26D42BCE
:10207000D72B29282FB7F89400E00093FF000AE33C
:102080000093FC0000E10093FD002FBF20E10EE271
:1020900012E00E94042020E10FE312E00E940420DD
:1020A00000E000932A0200932B0200932C0200937D
:1020B0003E0200932D0208953FB7F8941093FF005D
:1020C0004CE54093FC0040E14093FD003FBF1E7390
:1020D000017C102B10932C0220932D02089512BD29
:1020E00001BDEE9AEE99FECFB69B09C0EAE2F2E09E
:1020F00000810068008303E300932802B69A0895E4
:102100000E94362E2297A02F007C69F042E080E0EA
:1021100098E004E0A09F1A94012D049F800D911D6A
:1021200084969C0116C000912C0242E020E038E029
:1021300000FF09C01695169516951E7170E0210FC7
:10214000371F265B05C01F70149F200D311D265DB3
:102150003F4F8E010E94851E99810881802FA3FB2D
:102160000EF050C009E10E94A51D02FB1EF0409632
:102170008C0149C000912C0200720DBBEAE2F2E032
:102180000181016001838C01AADF00912C020071A2
:102190000DBB00E0E02FF0E0E65DFD4F2481E02F75
:1021A000F0E0E15CFD4F20830395003198F3EF9A56
:1021B00099D000E010E0F801E15CFD4F2081F801CA
:1021C000E65DFD4F248303950031A8F300E02091E4
:1021D0008001E02FF0E0E15CFD4F208303950031AA
:1021E000B0F300E0F0E0E02FE15CFD4F10811093D0
:1021F000800103950031B0F3EAE2F2E001810E7F45
:10220000018302C0192F6BDF2296E3E00C943D2E70
:102210002FB7F89400912C020093FF0008E0009380
:10222000FC0001E10093FD002FBF00E000932A02B3
:10223000D69800912C0200720DBB10912D020091D6
:102240002C02077F5DDF00912A0207FD14C0009178
:102250002C0204710DBB00913E02003808F478D0C6
:102260002EE232E001E811E05BD0EF9A00912C02FF
:1022700002FD02C002C0D69A089534D0D69A0895BD
:102280002FB7F89400912C020093FF0000E4009314
:10229000FC0001E10093FD002FBF00E000932A0243
:1022A000D69800912C0200720DBB10912D02009166
:1022B0002C02086025DF00912A0207FD11C0009161
:1022C0002C0204710DBB2EE232E001E811E028D0AF
:1022D0000DB308680DBB00912C0202FD02C0CDCFEA
:1022E000D69A08950EB30178E9F3F79B09C0EAE2A4
:1022F000F2E000810068008304E3009328020DC02F
:1023000021E831E00EE212E017D0EAE2F2E00181CA
:1023100000FD03C000810064008301E80EBB089546
:1023200040E050E0F901E40FF51F5081F8015083BF
:1023300043954031B0F3089540E050E0F9016081E9
:10234000F801E40FF51F608343954031B8F3089519
:10235000202F3FB7F89400912C020093FF0008EA69
:102360000093FC0001E10093FD003FBF622F6695E2
:10237000669566952770B9F000912C0248E0421BE3
:1023800001FF05C00FEF10E00E94122E04C00FEFF6
:1023900010E00E940D2EF0E0E62FE65DFD4F148167
:1023A000102314836395603148F420E1261B0EE26C
:1023B00012E070E0060F171F0E94042008958A9310
:1023C000FA93EA933A922A921A920A927A936A9329
:1023D0005A934A933A932A931A930A938FB7009188
:1023E0002C020093FF000FED0093FC0001E100932D
:1023F000FD00F79B09C0EAE2F2E00081006800837B
:1024000004E3009328020AC021E831E00EE212E062
:1024100093DFEAE2F2E000810064008301E80EBB92
:10242000D69A8FBF09911991299139914991599162
:10243000699179910990199029903990E991F991D0
:1024400089911895BA93AA93D8012FB7F89400915F
:102450005D020093FF0002E20093FC0002E10093A2
:10246000FD002FBF00914F0207FF3BC000915D02AE
:1024700000FF0FC0A09355021093560201E0009395
:102480005D020CE100935E0204E000936302E9D771
:102490002EC000E000936602009365020E94702C3B
:1024A000009157020E9459200CE90E94681A00937B
:1024B000590200E00E94681A00935A0200E00E944C
:1024C000681AFD010193DF0100E00E94681A0C9375
:1024D0000E94781A009158020E9459200E94732C81
:1024E00006C00CE10093280200E000932902A991A4
:1024F000B99108958A93802F2FB7F89400915D02C7
:102500000093FF000AE70093FC0002E10093FD0046
:102510002FBF00914F0207FF32C000915D0200FF04
:1025200013C08093670207E612E0009355021093F0
:10253000560201E800935D020BE100935E0202E0A7
:10254000009363028ED71EC000E0009366020093E2
:1025500065020E94702C009157020E9459200BE9DD
:10256000B7D700935902082FB3D700935A02C0D7A8
:10257000009158020E9459200E94732C03C00CE164
:1025800000932802899108959A938A93902F812F1E
:102590002FB7F89400915D020093FF0004EC0093C4
:1025A000FC0002E10093FD002FBF00914F0207FFE6
:1025B00036C000915D0200FF15C090936702109332
:1025C000680207E612E0009355021093560201E8F4
:1025D00000935D020AE100935E0203E00093630250
:1025E00040D720C000E000936602009365020E947D
:1025F000702C009157020E9459200AE969D7009374
:102600005902092F65D700935A02082F61D770D756
:10261000009158020E9459200E94732C03C00CE1C3
:102620000093280220C5BA93AA93D8012FB7F89433
:1026300000915D020093FF0003E10093FC0003E1C1
:102640000093FD002FBF00914F0207FF36C000919D
:102650005D0200FF0FC0A09355021093560201E0E7
:1026600000935D0209E100935E0204E000936302BF
:10267000F8D626C000E000936602009365020E942F
:10268000702C009157020E94592009E921D700932C
:10269000590200E01DD700935A0200E019D7FD014E
:1026A0000193DF0100E014D70C9322D70091580268
:1026B0000E9459200E94732C03C00CE10093280251
:1026C00016CF2FB7F89400915D020093FF0001E64A
:1026D0000093FC0003E10093FD002FBF00914F0227
:1026E00007FF1FC000915D0200FF0EC000E00093D5
:1026F000670207E612E0009355021093560201E0CC
:1027000000935D0208E101C100E0009366020093BE
:1027100065020E94702C009157020E94592008E91E
:10272000FAC0BEC08A93802F2FB7F89400915D0243
:102730000093FF0002E90093FC0003E10093FD0019
:102740002FBF00914F0207FF32C000915D0200FFD2
:1027500013C08093670207E612E0009355021093BE
:10276000560201E800935D0207E100935E0202E079
:102770000093630276D61EC000E0009366020093C9
:1027800065020E94702C009157020E94592007E9AF
:102790009FD600935902082F9BD600935A02A8D6C1
:1027A000009158020E9459200E94732C03C00CE132
:1027B00000932802E7CE2FB7F89400915D020093B2
:1027C000FF000BED0093FC0003E10093FD002FBF21
:1027D00000914F0207FF33C000915D0200FF17C058
:1027E0000AEA009367020CEC0093680200EF009382
:1027F000690207E612E0009355021093560201E8C1
:1028000000935D0206E100935E0204E081C000E0F7
:1028100000936602009365020E94702C009157029B
:102820000E94592006E954D6009359020AEA50D66C
:1028300000935A020CEC4CD600EF4AD673C030C05D
:102840002FB7F89400915D020093FF0000E200931F
:10285000FC0004E10093FD002FBF00914F0207FF31
:102860001FC000915D0200FF0EC000E000936702F0
:1028700007E612E0009355021093560201E0009320
:102880005D0205E142C000E000936602009365022C
:102890000E94702C009157020E94592005E93BC00C
:1028A0000CE10093280208952FB7F89400915D027F
:1028B0000093FF0004E50093FC0004E10093FD0099
:1028C0002FBF00914F0207FF1FC000915D0200FF64
:1028D0000EC000E00093670207E612E00093550285
:1028E0001093560201E000935D0204E10EC000E087
:1028F00000936602009365020E94702C00915702BB
:102900000E94592004E907C0CBCF00935E0202E089
:1029100000936302A6C5DCD50093590200E0D8D528
:1029200000935A02E5D5009158020E9459200C9458
:10293000732C8A93802F2FB7F89400915D02009337
:10294000FF0009E90093FC0004E10093FD002FBFA4
:1029500000914F0207FF32C000915D0200FF13C0DB
:102960008093670207E612E0009355021093560227
:1029700001E800935D020FE000935E0202E0009325
:1029800063026FD51EC000E00093660200936502EB
:102990000E94702C009157020E9459200FE898D590
:1029A00000935902082F94D500935A02A1D50091A3
:1029B00058020E9459200E94732C03C00CE100931E
:1029C0002802E0CD9A938A93902F812F2FB7F89405
:1029D00000915D020093FF0002EE0093FC0004E111
:1029E0000093FD002FBF00914F0207FF36C00091FA
:1029F0005D0200FF15C0909367021093680207E61E
:102A000012E0009355021093560201E800935D0214
:102A10000EE000935E0203E00093630222D520C023
:102A200000E000936602009365020E94702C009102
:102A300057020E9459200EE84BD500935902092FE6
:102A400047D500935A02082F43D552D5009158021A
:102A50000E9459200E94732C03C00CE100932802AD
:102A600002C39A938A93902F812F2FB7F8940091E5
:102A70005D020093FF0001E30093FC0005E1009379
:102A8000FD002FBF00914F0207FF36C000915D028D
:102A900000FF15C0909367021093680207E612E0EA
:102AA000009355021093560201E800935D020DE079
:102AB00000935E0203E000936302D3D420C000E0E1
:102AC00000936602009365020E94702C00915702E9
:102AD0000E9459200DE8FCD400935902092FF8D424
:102AE00000935A02082FF4D403D5009158020E9493
:102AF00059200E94732C03C00CE100932802B3C23A
:102B00000E94352EA02FC9012FB7F89400915D02C5
:102B10000093FF0000E80093FC0005E10093FD0036
:102B20002FBF00914F0207FF3BC000915D0200FFE5
:102B300013C0809355023093560201EC00935D025E
:102B40000CE000935E02A0936102009161020E5FAF
:102B50000093630286D427C000E0009366020093CE
:102B600065020E94702C009157020E9459200CE8C7
:102B7000AFD4009359020A2FABD400935A02B0E0AD
:102B800005C0FC010191CF01A3D4B395BA17C8F3D6
:102B9000AFD4009158020E9459200E94732C03C0A8
:102BA0000CE100932802A9C00E94352EA02FC90174
:102BB0002FB7F89400915D020093FF0004ED00939D
:102BC000FC0005E10093FD002FBF00914F0207FFBD
:102BD0003BC000915D0200FF13C08093550230930B
:102BE000560201EC00935D020BE000935E02A0939D
:102BF0006102009161020E5F0093630232D427C02C
:102C000000E000936602009365020E94702C009120
:102C100057020E9459200BE85BD4009359020A2FF7
:102C200057D400935A02B0E005C0FC010191CF01D6
:102C30004FD4B395BA17C8F35BD4009158020E94E1
:102C400059200E94732C03C00CE10093280255C048
:102C50000E94352ED801C9012FB7F89400915D026A
:102C60000093FF0008E20093FC0006E10093FD00E2
:102C70002FBF00914F0207FF3DC000915D0200FF92
:102C800016C0809355023093560201E300935D0213
:102C90000AE000935E0201E000936102A0935F02EC
:102CA0001093600205E000936302DBD326C000E0CE
:102CB00000936602009365020E94702C00915702F7
:102CC0000E9459200AE804D4009359020B2F00D423
:102CD00000935A020A2FFCD300E0FAD300E0F8D3A5
:102CE000FC01008305D4009158020E9459200E94E3
:102CF000732C03C00CE100932802E4E00C943C2EFA
:102D00000E94362EC801A22F2FB7F89400915D02C1
:102D10000093FF0000E80093FC0006E10093FD0033
:102D20002FBF00914F0207FF3AC000915D0200FFE4
:102D300017C0A093670207E612E0009355021093B4
:102D4000560201EA00935D0209E000935E0280935F
:102D50005F029093600204E00093630282D322C07A
:102D600000E000936602009365020E94702C0091BF
:102D700057020E94592009E8ABD300935902092F4A
:102D8000A7D300935A02082FA3D30A2FA1D3B0D3FD
:102D9000009158020E9459200E94732C03C00CE13C
:102DA00000932802E3E00C943D2E0E94342ED801BB
:102DB000422ECA012FB7F89400915D020093FF00E4
:102DC00005ED0093FC0006E10093FD002FBF00918C
:102DD0004F0207FF46C000915D0200FF17C04093FD
:102DE00055025093560201E700935D0208E00093FC
:102DF0005E0240926102A0935F0210936002009114
:102E000061020B5F009363022CD32EC000E000939D
:102E10006602009365020E94702C009157020E9486
:102E2000592008E855D300935902042D51D300933B
:102E30005A020B2F4DD30A2F4BD300E049D3A0E009
:102E400006C000E045D3FC010193CF01A395A41572
:102E5000C0F34ED3009158020E9459200E94732C57
:102E600003C00CE100932802E5E00C943B2E0E9485
:102E7000342ED801422ECA012FB7F89400915D027A
:102E80000093FF0007E30093FC0007E10093FD00BF
:102E90002FBF00914F0207FF43C000915D0200FF6A
:102EA00017C0409355025093560201EE00935D0205
:102EB00007E000935E02A0935F02109360024092CD
:102EC0006102009161020C5F00936302CAD22BC0C1
:102ED00000E000936602009365020E94702C00914E
:102EE00057020E94592007E8F3D200935902042D9B
:102EF000EFD200935A020B2FEBD20A2FE9D2A0E0B7
:102F000005C0FC010191CF01E3D2A395A415C8F33C
:102F1000EFD2009158020E9459200E94732C03C0E6
:102F20000CE100932802A0CF0E94352EA02FC901EA
:102F30002FB7F89400915D020093FF0004E900931D
:102F4000FC0007E10093FD002FBF00914F0207FF37
:102F50003EC000915D0200FF13C080935502309384
:102F6000560201E500935D0206E000935E02A09325
:102F70006102009161020D5F0093630272D22AC068
:102F800000E000936602009365020E94702C00919D
:102F900057020E94592006E89BD2009359020A2F3B
:102FA00097D200935A0200E093D2B0E006C000E04E
:102FB0008FD2FC010193CF01B395BA17C0F398D219
:102FC000009158020E9459200E94732C03C00CE10A
:102FD0000093280292CE9A938A93C8012FB7F8944F
:102FE00000915D020093FF000BEE0093FC0007E1EF
:102FF0000093FD002FBF00914F0207FF31C00091E9
:103000005D0200FF0EC0809355021093560201E04E
:1030100000935D0200935E0203E00093630221D2FD
:1030200022C000E000936602009365020E94702CAB
:10303000009157020E94592001E84AD20093590298
:1030400000E046D200935A0200E042D2FC01008325
:103050004FD2009158020E9459200E94732C03C045
:103060000CE1009328028991999108959A938A938B
:10307000C8012FB7F89400915D020093FF0006E3AA
:103080000093FC0008E10093FD002FBF00914F0268
:1030900007FF32C000915D0200FF0FC08093550210
:1030A0001093560201E000935D0202E000935E027D
:1030B00003E000936302D5D122C000E000936602D2
:1030C000009365020E94702C009157020E945920C3
:1030D00002E8FED10093590200E0FAD100935A02AF
:1030E00000E0F6D1FC01008303D2009158020E9457
:1030F00059200E94732C03C00CE100932802B3CF27
:103100009A938A93C8012FB7F89400915D020093B7
:10311000FF0000E80093FC0008E10093FD002FBFD2
:1031200000914F0207FF31C000915D0200FF0EC009
:10313000809355021093560201E000935D0203E074
:1031400000935E02009363028CD122C000E00093E2
:103150006602009365020E94702C009157020E9443
:10316000592003E8B5D10093590200E0B1D1009392
:103170005A0200E0ADD1FC010083BAD1009158029F
:103180000E9459200E94732C03C00CE10093280276
:103190006ACF2FB7F89400915D020093FF0009EC0D
:1031A0000093FC0008E10093FD002FBF00914F0247
:1031B00007FF2DC000915D0200FF0DC00BE512E07E
:1031C000009355021093560201E000935D0204E063
:1031D00000935E029DCB00E00093660200936502BF
:1031E0000E94702C009157020E94592004E870D16F
:1031F0000093590200E06CD100935A0200E068D1BC
:1032000000935B0200E064D100935C028BCB48CB5F
:103210000E94352EA02FC9012FB7F89400915D02AE
:103220000093FF0008E00093FC0009E10093FD001B
:103230002FBF00914F0207FF3EC000915D0200FFCB
:1032400013C0809355023093560201E500935D024E
:1032500005E000935E02A0936102009161020D5FA0
:1032600000936302FED02AC000E000936602009340
:1032700065020E94702C009157020E94592005E8B7
:1032800027D1009359020A2F23D100935A0200E05C
:103290001FD1B0E006C000E01BD1FC010193CF01BB
:1032A000B395BA17C0F324D1009158020E94592057
:1032B0000E94732C03C00CE1009328021ECD9A9348
:1032C0008A93C8012FB7F89400915D020093FF0024
:1032D0000FE50093FC0009E10093FD002FBF009172
:1032E0004F0207FF32C000915D0200FF0FC08093C4
:1032F00055021093560201E000935D0202E1009333
:103300005E0203E000936302ACD022C000E00093B1
:103310006602009365020E94702C009157020E9481
:10332000592002E9D5D00093590200E0D1D0009392
:103330005A0200E0CDD0FC010083DAD0009158029F
:103340000E9459200E94732C03C00CE100932802B4
:103350008ACEBA93AA93D8012FB7F89400915D0250
:103360000093FF0009EA0093FC0009E10093FD00CF
:103370002FBF00914F0207FF3CC000915D0200FF8C
:103380000FC0A09355021093560201E000935D0216
:1033900003E100935E0206E00093630262D02CC05A
:1033A00000E000936602009365020E94702C009179
:1033B00057020E94592003E98BD00093590200E084
:1033C00087D000935A0200E083D00D9300E080D0B4
:1033D0000D9300E07DD0FD010193DF0100E078D086
:1033E0000C9386D0009158020E9459200E94732CA1
:1033F00003C00CE1009328027AC83FB7F894009309
:10340000FF004DEF4093FC0049E14093FD003FBFBA
:1034100000935D0240E040935502409356021093A2
:103420005702209358024093590240935A02409306
:103430005B0240935C02409365024093660210E099
:1034400001E50C941E2C2FB7F89400E00093FF00C8
:1034500003E20093FC000AE10093FD002FBF0C94EF
:10346000382C28972FB7F89400E00093FF0001E371
:103470000093FC000AE10093FD002FBF009155026C
:10348000109156020093520210935302009163026E
:103490000093620259980091570108680093570100
:1034A00007E00093580100E8088301E009830091D8
:1034B00057020A8302E00B8300E00C830D8309EBC3
:1034C0001AE10E831F838E010E94A72C289608956F
:1034D0000EBD10916602100F109366020DB507FF26
:1034E000FDCF0EB510916502100F1093650208957F
:1034F000009166020095ECDF009165020F3F31F00C
:103500000EE10093280200E0009329020895EF9352
:10351000E0E0E093FF00E7E8E093FC00EAE1E093FD
:10352000FD00EF91E0915802E09370008D9A8F9A20
:10353000E6EAE0930C02EAE1E0930D02EE27E09365
:103540005801FF91FFBFFF91EF911895EF93E0E0D5
:10355000E093FF00E6EAE093FC00EAE1E093FD007F
:10356000EF91E0E2E1BBEE27E0930B02089A599A53
:103570000895EF93E0E0E093FF00E9EBE093FC00B7
:10358000EAE1E093FD00EF910F931F931091630226
:103590008F98E0915E02EEBD1A95F0915D02F6FF04
:1035A00004C0E0916102EEBD1A95F5FF08C0E091FC
:1035B0006002EEBD1A95E0915F02EEBD1A95F7FD2F
:1035C00017C00E94081B10936302ECE0E0935801BF
:1035D000EEE3E0935002EBE1E093510200916202CE
:1035E00004309CF4009162020860009358010DC001
:1035F0000E941E1B10936302E0E8E0935801EEE383
:10360000E0935002EBE1E09351021F910F91089576
:10361000EF93E0E0E093FF00E8E0E093FC00EBE1F3
:10362000E093FD00EF91EE27F0915701F6FD05C004
:10363000112319F0EEBD1A95F7CF0895EF93E0E04E
:10364000E093FF00EEE1E093FC00EBE1E093FD008E
:10365000EF919F93E0915202F091530290915701A4
:1036600096FD06C0112321F091919EBD1A95F6CFCB
:10367000E0935202F09353029F910895EF93E0E09C
:10368000E093FF00EEE3E093FC00EBE1E093FD004C
:10369000EF910F931F9310916202F0915D02F3FD81
:1036A0000BC0EEB51A95E0935902EEB5E0935A02BD
:1036B0001A95F860F0935D02112379F0F0915D02A4
:1036C000F7FD09C0F4FD0E94BA1BF0915D02F4FF02
:1036D0000E949D1B02C00E94D61B10936202109193
:1036E0006302112369F0F0915D02F7FD05C00E94AD
:1036F000081B1093630204C00E941E1B10936302F8
:10370000009162020023A9F0ECE0E0935801EEE39F
:10371000E0935002EBE1E093510204301CF40860A6
:10372000009358011F910F91FF91FFBFFF91EF91FF
:1037300018951F910F910C94871AEF93E0E0E09396
:10374000FF00EDE9E093FC00EBE1E093FD00EF9179
:103750009F93E0915202F09153029EB591931A9576
:10376000909157019770C9F7E0935202F09353027A
:103770009F910895EF93E0E0E093FF00EAEBE09380
:10378000FC00EBE1E093FD00EF91F09161021F1767
:1037900039F0EEB51A95E0915701E770C1F7089539
:1037A000F0915D02FF7EF0935D020895EF93E0E0FB
:1037B000E093FF00E6EDE093FC00EBE1E093FD0019
:1037C000EF91EEB51A95E0915701E770D1F70895A2
:1037D0009A938A9322972FB7F89400E00093FF0002
:1037E00008EE0093FC000BE10093FD002FBF00E00A
:1037F0000093A1020093A2020093A30242E02AE6F2
:1038000038E08E010E94851E99812881822F002335
:1038100041F0E1EAF2E00081006800830EE30093EA
:10382000280200E00093A4020093A50243E0392F90
:1038300006EA12E00E94851E002341F0E1EAF2E070
:103840000081006800830EE30093280200E00093EB
:10385000A9020093AA0242E003969C010BEA12E03F
:103860000E94851E002341F0E1EAF2E00081006839
:1038700000830EE30093280222968991999108957E
:103880002FB7F89400E00093FF0000E40093FC00E1
:103890000CE10093FD002FBF08951FB7F89400932B
:1038A000FF002DE42093FC002CE12093FD001FBFBE
:1038B0000093A30200E00093A2020091A30200FD86
:1038C00002C00E94DA1F0091A30206FD13D00091EE
:1038D000A30207FDA0D00091A302037051F4009150
:1038E00001010B7F009301010091CC000F7E00933A
:1038F000CC0008959A938A9364972FB7F89400E0C8
:103900000093FF000AE70093FC000CE10093FD0028
:103910002FBF9E01245F3F4FE0E0F0E2890148E0C5
:1039200050E00E94282EE8E0F0E28E014CE00E9478
:10393000282E0091A30200FF02C003E009830C2F90
:10394000045F1F4F0E94E72C002379F48E010E9430
:103950002B2D002351F481B10F9822D045D081B98D
:103960000E94132D0E94632D0BC0E1EAF2E000815A
:10397000006800830FE10093280200E00093290211
:103980002FB7F89400E00093FF000BE70093FC00D2
:103990008AE79CE101969093FD002FBF64966DCF5E
:1039A00097989799FECF959A979A0091590101FFA0
:1039B000FCCF0091590102600093590105E000938A
:1039C00074000091590101FFFCCF01E00E945920D1
:1039D00010917C0000E00093A4021093A5020091D6
:1039E0007B000093A40208951091A8020091A40204
:1039F0002091A602021B0E9451202091F10146E075
:103A00000E94172E200F203810F00FE701C0022F60
:103A10000093F10108959A938A9368972FB7F894C9
:103A200000E00093FF000BE00093FC000DE1009329
:103A3000FD002FBF9E01E4E1F0E28E014CE050E07A
:103A40000E94282E245F3F4FE0E2F0E289014CE023
:103A50000E94282E0091A30200FF02C003E0098308
:103A60008E010E942B2D002381F48E01045F1F4FD5
:103A70000E947B2D002349F423D048D021D046D08A
:103A80000E94632D0E94B32D0BC0E1EAF2E0008199
:103A90000068008300E20093280200E000932902FE
:103AA0002FB7F89400E00093FF000CE00093FC00B7
:103AB0008BE09DE101969093FD002FBF6896DDCECF
:103AC0009F989F99FECF9D9A9F9A0091E10101FFD7
:103AD000FCCF0091E10102600093E1010091AB0293
:103AE000009379000091AC0200937A000091E1010B
:103AF00001FFFCCF1091850000E00093A902109314
:103B0000AA02009184000093A90208950091A902DD
:103B1000083C08F40D5F069506950D3270F40DE231
:103B2000102F02E3011B1091C7001F71010F4AF40F
:103B300000E0102F1093C7000895083388F317E3AF
:103B4000F0CF0032B4F31FE1F5CF1FB74FB7F894B1
:103B50000093FF0025EA2093FC002DE12093FD0057
:103B60004FBFFF99FECFF894002311F409E205C07E
:103B7000013011F409E301C009E107BFC895002D28
:103B80001FBF0091100008958A93812F4FB7FF99AE
:103B9000FECFF894A895012E1FB7F8940093FF006C
:103BA00024EC2093FC002DE12093FD001FBF002397
:103BB00011F419E205C0013011F419E301C019E153
:103BC00017BFE8954FBFC1DF801711F005E001C0B6
:103BD00000E0899108959A938A93C8012FB7F894C9
:103BE0000093FF000BEE0093FC000DE10093FD003D
:103BF0002FBF17FB8EF59370082F0550083008F083
:103C000074C08930A0F48550880F00E09EDF202F1B
:103C1000482F03E010E00E940D2E00952023482F2E
:103C2000092F0E94062E202B122F00E013C089506E
:103C3000880F01E08ADF202F482F03E010E00E9468
:103C40000D2E00952023482F092F0E94062E202B91
:103C5000122F01E099DF14C090959370843098F48E
:103C6000880F23B5482F03E010E00E940D2E009529
:103C70002023482F092F0E94062E202B23BD00E071
:103C8000899199910895883098F48450880F2091F3
:103C90003B01482F03E010E00E940D2E00952023E9
:103CA000482F092F0E94062E202B20933B01E7CF9F
:103CB0008C3098F48850880F20913C01482F03E005
:103CC00010E00E940D2E00952023482F092F0E94FE
:103CD000062E202B20933C01D2CF39F400913D01D8
:103CE0000C7F092B00933D01CACF06E0C9CF1FB757
:103CF000F8940093FF0027E72093FC002EE1209327
:103D0000FD001FBF102F02E03FCFF801642F0FB658
:103D100000E01FB7F8944093FF0045E84093FC0093
:103D20004EE14093FD001FBF203819E0310730F409
:103D3000A901460F501F4138594008F019C0FF999A
:103D4000FECFF89432BD21BD11E016BB10E003C0D8
:103D500020B5219313951617D8F3B69B02C004E043
:103D6000B69AB59B02C001E0B59AB0980FBE08950F
:103D700003E00895F8016FB750E07FB7F8944093DF
:103D8000FF000AEB0093FC000EE10093FD007FBFF3
:103D9000203808E0300740F40901040E151E01E840
:103DA000001608E01006C0F0E3CFFF99FECFF894AC
:103DB000A895FE9A32BD21BD019100BD2F5F3F4FF6
:103DC0004A9521F001B50F700F30A9F70FB30F7CA2
:103DD0000FBBFA9AF99A6FBF442339F7B59B02C01B
:103DE00052E0B59AFF99FECF052F08952FB7F894AA
:103DF00010E81093E50101C008E00093E5012FBF32
:103E000008951FB7F8940BB5077F0BBD08E1009329
:103E10006E0007E000936E001FBF08952FB7F8945F
:103E200010916E00186110936E0000936E00009365
:103E30006E00E5CFF8940E7008BF08B7016008BFA8
:103E40007894889508B70E7F08BF08952FB7009122
:103E5000E30100733091CA001091CC0010621093FE
:103E6000CC001091CA0011601093CA00000010919C
:103E7000CA0012FFFBCF0160F89410E81093E30131
:103E80000093E3011093E30108600093E3011093B2
:103E9000E50108E00093E50130FB2EF00091CA0037
:103EA0000E7F0093CA00ABCF8A93802FCFDF00E054
:103EB00002C0000003950817E0F3899108951FB729
:103EC000F89400E80093E30100E00093E30100911F
:103ED000CC000F7D0093CC0000E80093E50108E0E2
:103EE0000093E50199CF2FB70091E3010073F89497
:103EF00010E81093E3010093E3011093E3010860DD
:103F00000093E3010091CC000F7D0093CC0010934F
:103F1000E50172CF2FB71091E301107301300091CA
:103F2000CC0011F4006201C00F7D0093CC00009121
:103F3000C90001600093C9000091E4010160009391
:103F4000E4011264F89400E80093E3011093E301A4
:103F50000093E30118601093E3010093E5014CCF57
:103F60003FB71091E3012091CC0020622093CC0058
:103F700010730770102BF89400E80093E30110937E
:103F8000E3010093E30118601093E3010093E5015E
:103F900008E00093E5013FBF08950091CC0004FFC5
:103FA00008C000E0009301010091CC00047E009362
:103FB000CC000895219700E008830091CC000061B7
:103FC0000093CC0041E024E039E08E010E94851E80
:103FD000002319F000E4009328020091CB00036055
:103FE0000093CB000091CB000370B9F708810093D8
:103FF0000901009101010460009301010091000199
:1040000002FFFCCF21960895F801222321F000E061
:1040100001932A95E1F70895442341F0F901519164
:104020009F01F80151938F014A95C1F708951091AE
:10403000E30113FF0EC01091E30112FF02C010E272
:1040400009C01091E301177011F411E003C013E2ED
:1040500001C014E0D49A202F2F70D9F0D498202FCB
:104060002F7E2093E60120E002C000002395211757
:10407000E0F32AB521602ABD20E002C000002395AC
:104080002117E0F304FB2EF40091E6010061009398
:10409000E60108950FEF0093280200E00093290243
:1040A00008950F921F920103002D112D1F900F9064
:1040B0000895003011F00A95FCCF08950E94652004
:1040C000022F132F242F352F08956F935527442740
:1040D00060E13695279510F4400F511F579547958D
:1040E000379527956A95B9F76F91089509B10E7FB5
:1040F00010E0329911E0012B1EEF012708952FB730
:10410000F89400E00093FF000FE70093FC0000E24A
:104110000093FD002FBF00E00093940200939502EE
:104120000093A00208952FB7F89400919402109183
:104130009502012B0093FF0003E90093FC0000E2CD
:104140000093FD002FBFF89401B100939602D1981F
:1041500001B10F7901B90CB10093970200B7009338
:10416000990200B7046000BF00B70F7700BF00914D
:10417000F1010093980278940091940200780093E2
:10418000940200E00093950208952FB7F8940091EF
:10419000940210919502012B0093FF0005EC00930F
:1041A000FC0000E20093FD002FBFF8940F980091EF
:1041B00098020093F101009199020B7700BF0091E2
:1041C0009702077F0CB90091960201B9D19A7894B1
:1041D0000895AC01202F3FB7F89400E00093FF0052
:1041E00009EE0093FC0000E20093FD003FBFF8944D
:1041F0003AB3D1987894FF99FECF0091B00100684E
:104200000093B00180E898E0C49692BD81BDB09A59
:104210000091B20100680093B20101E010B5109363
:10422000B6010093B3011091B10111FFFCCF0395CA
:104230000C30A0F32093B6010CE00093B301009181
:10424000B10101FFFCCF0091B2010F770093B201E1
:10425000B69B09C0E4E9F2E000810068008309E24E
:1042600000932802B69AB59B09C0E4E9F2E0008108
:10427000006800830AE200932802B59AB098F89487
:104280003ABB7894CA0108955B2F6A2FF8014FB7A3
:10429000F8940091940210919502012B0093FF0075
:1042A00004E40093FC0001E20093FD004FBF009185
:1042B000940200780093940200E00093950201813B
:1042C00007701091B00111FF05C000E8009394023F
:1042D0000EE20EC01091B10110FD05C000E8009380
:1042E00094020BE205C039F400E8009394020CE25A
:1042F000009328024AC0118117771093B20122233C
:1043000051F01091B20118601093B201A5E9B2E02A
:104310001C9118601C93108118701093B001222317
:1043200091F4332381F00091B00101600093B0015A
:104330000091B20107600093B201A5E9B2E00C91CF
:1043400002600C9307E01FB51023101729F0A4E9B1
:10435000B2E00C9100610C9302810093B3010381E0
:104360000093B70104810093C00108E00093B401F9
:10437000639AF894E4E9F2E001810160018300911D
:10438000B00102600093B0017894A62FB52F089574
:104390002FB7F8940091940210919502012B00938D
:1043A000FF0008EC0093FC0001E20093FD002FBF2A
:1043B000F8940091B00101FF0AC00091B0010460BF
:1043C0000093B001E4E9F2E0008100620083789498
:1043D00008955B2F6A2FF8014FB7F894009194026B
:1043E00010919502012B0093FF0009EE0093FC0051
:1043F00001E20093FD004FBFA5E9B2E00C9101601E
:104400000C930E2F0F2BD9F00091B2010F73009374
:10441000B2010091B10101FFFCCF0091B80100830E
:104420000091B90101830091BA0102830091BB019F
:1044300003830091BC0104830091BD010583022F19
:10444000032B69F00091C101F90100830091C201C1
:1044500001830091C30102830091C4010383E4E955
:10446000F2E001810E7F018390CF5B2F6A2FF8016C
:104470004FB7F8940091940210919502012B00938C
:10448000FF0005E30093FC0002E20093FD004FBF34
:104490000E2F0F2BB9F10091B2010F770093B201EB
:1044A0000091B20100640093B201213108F020E1D3
:1044B000A5E9B2E00C9101600C931CC0032F0F70B2
:1044C0000093B3010091B10101FFFCCF0091B8014D
:1044D00001930091B90101930091BA0101930091F8
:1044E000BB0101930091BC0101930091BD010193B7
:1044F0002A953395222311F7E4E9F2E001810E7F3A
:10450000018308C0E4E9F2E00081006800830DE265
:10451000009328023ACF7B2F2A2E602FD901FA016F
:104520002FB7F8940091940210919502012B0093FB
:10453000FF000BE80093FC0002E20093FD002FBF98
:104540000A2F032B51F1452B41F108E0609F0D919B
:104550001D91000D111D00939A0210939B02008182
:104560001181000E111E2D913D918001020F131F2C
:1045700022813381021B130B00939C0210939D0236
:104580000D911C91000E111E04811581001A110A53
:1045900000929E0210929F0208C0E4E9F2E00081BE
:1045A000006800830DE200932802A22DB72F089522
:1045B0000FB6F8946091940270919502672B609306
:1045C000FF0068ED6093FC0062E26093FD000FBEA7
:1045D000602F612B09F47EC0622F632B09F47AC02F
:1045E000642F652B09F476C0F8946091B00161FDE9
:1045F00069C0E4E9F2E0618161606183789460916F
:10460000B2016F776093B2016091B001637D6093F6
:10461000B0016091B00160616093B00160E078E04A
:104620007093B40170E0F801E60FF71F708170938A
:10463000B80170E0F801E60FF71F71817093B901BE
:1046400070E0F901E60FF71F70817093BA0170E016
:10465000F901E60FF71F71817093BB01F0E0E62FBF
:10466000EC56FD4F76817093BC01F0E0E62FEC56DE
:10467000FD4F77817093BD01F8947091B001726025
:104680007093B00178947091B40173FFFCCF0090E7
:10469000BE0170E0FA01E60FF71F00820090BF0133
:1046A000FA01E60FF71F01826E5F663008F4B7CF9C
:1046B00008E00093B401009195020E7400939502F6
:1046C000006460CD7894E4E9F2E000810068008342
:1046D0000EE206C0E4E9F2E00081006800830DE22A
:1046E000009328020895F8014FB7F89400919402BE
:1046F00010919502012B0093FF0003E70093FC004B
:1047000003E20093FD004FBF0E2F0F2B09F457C09B
:10471000022F032B09F453C0F8940091B00101FD5E
:1047200046C078940091B2010F770093B2010091D6
:10473000B001037E0093B0010091B00100620093CC
:10474000B00108E00093B40100810093B801018139
:104750000093B90102810093BA0103810093BB0168
:1047600004810093BC0105810093BD01F894E4E944
:10477000F2E00181016001830091B00102600093C9
:10478000B00178940091B40103FFFCCF0091BE0109
:10479000F90100830091BF01018308E00093B40197
:1047A000009195020E72009395020062EBCC789412
:1047B000E4E9F2E00081006800830EE206C0E4E96B
:1047C000F2E00081006800830DE28ACFF8014FB764
:1047D000F8940091940210919502012B0093FF0030
:1047E00006EE0093FC0003E20093FD004FBF0E2F86
:1047F0000F2B09F44DC0022F032B09F449C0F89484
:104800000091B00101FD3CC078940091B2010F7796
:104810000093B2010091B001037F0093B0010091B9
:10482000B00100630093B0010091B40108600093EF
:10483000B40100810093BE0101810093BF01F8948F
:10484000E4E9F2E00181016001830091B0010260BE
:104850000093B00178940091B40103FFFCCF009164
:10486000BE01F90100830091BF01018308E00093BC
:10487000B401009195020E7100939502006182CC03
:104880007894E4E9F2E00081006800830EE206C05B
:10489000E4E9F2E00081006800830DE221CF0E948C
:1048A000362EC801A22F44E089010E94122E9801E1
:1048B00044E08C010E94122E0E945E208F70AF7027
:1048C0008A0F880F8251482F03D0E3E00C943D2ECD
:1048D000E42F40E050E0E0FB2EF0000F111F221FFC
:1048E000331FEA95602F612B622B632BA1F10030FF
:1048F00040E114072507350768F0003040E1140750
:104900002507350710F4E73FD4F442E00E94252E36
:10491000EE5FF3CFE83F8CF0003044E0140725074A
:10492000350768F4E93F5CF042E00E941E2EE25039
:10493000F3CF42E00E94252EEE5FE73FD4F344E040
:104940000E940D2EA801FE2FFF0FFF0B3996F59543
:10495000E7954E2B5F2B8A010895FA93EA933A93D9
:104960002A931A930A933FB70091940210919502EB
:10497000012B0093FF000DEA0093FC0004E200937A
:10498000FD000091B001057F0093B0010091B201DC
:1049900007701091B40110232091B4010295000F0B
:1049A0002023122B1093A00259F0E4E9F2E00181D8
:1049B000046001830081006800830FE200932802F5
:1049C000009195020E7800939502E4E9F2E0006808
:1049D00001830081006400833FBF099119912991EF
:1049E0003991E991F9911895392F482F2FB700E0A7
:1049F0000093AD020D980F98FF99FECF80E898E0E4
:104A00008E9692BD81BDB09A00B50093F20100B5BB
:104A10000093F10118E012BD00EC01BDE0E9F0E007
:104A200005E310B511930A95E1F700B50093F9017C
:104A300000B50093FA0100B50093FB01E0E3F1E05B
:104A40000BE010B511930A95E1F7B69B09C0EDEAAA
:104A5000F2E000810068008300E300932802B69A28
:104A6000B59B09C0EDEAF2E000810068008301E334
:104A700000932802B59AB098F89400E800938E014C
:104A800003E000938E012FBF842F932F08952FB73B
:104A9000F89400E00093FF0007E40093FC0005E2B7
:104AA0000093FD002FBF139812980091D900026067
:104AB0000093D9000091E00002600093E00004E35D
:104AC00010E2009303021093040208E410E2009342
:104AD00005021093060206E610E200930902109305
:104AE0000A0208E510E2009307021093080200E0B2
:104AF000009393020093920200936A0200936B0268
:104B000000936C0200936D0200936E0200936F029B
:104B100008952FB7F89400E00093FF0009E8009390
:104B2000FC0005E20093FD002FBF0E94132D0E94A0
:104B3000632DD29AD39A139A129A179A169AD7CFAC
:104B40004091DA001091DA0010681093DA0010E05A
:104B500006C0F90151919F015093D8001395101789
:104B6000C0F347FB2EF00091DA000F770093DA00D4
:104B700008954091E1001091E10010681093E10068
:104B800010E006C0F90151919F015093DF00139589
:104B90001017C0F347FB2EF00091E1000F77009350
:104BA000E10008958A93402F5FB7F8940093FF00C7
:104BB00002ED0093FC0005E20093FD005FBF02E000
:104BC0000093E50080916A020091CC00006100939F
:104BD000CC0000E000936A0200E100936C02409375
:104BE0006D0220936E0230936F020091E3010093F7
:104BF000700270D2EAE6F2E0008107FF09C002818C
:104C00000F7E02830091CC000F7E0093CC001EC06B
:104C100086FB1EF402810068028300E0009300021C
:104C2000038105FF0BC0009105021091060200935D
:104C300001021093020254985C9808C0009103028C
:104C400010910402009301021093020289910895C9
:104C50002FB7F89400E00093FF0008E20093FC00F7
:104C600006E20093FD002FBFF4C100910002E09125
:104C70000102F091020212E0019FE00DF11D059189
:104C8000F491E02F09942FB7F89400E00093FF000F
:104C900003E40093FC0006E20093FD002FBFD298CE
:104CA00017987AD2009160000260009360007898B3
:104CB00000916D0205FF02C07A9A01C07B9A0091B3
:104CC000810207FF02C0789A01C0799A00917D02A3
:104CD0000093610000917B020093620000917C02CE
:104CE00000936300AAD2D4D20091000203950093EE
:104CF000000208952FB7F89400E00093FF000AE740
:104D00000093FC0006E20093FD002FBF0091CB0052
:104D100003600093CB000091CB00037029F4009155
:104D20000002039500930002089521972FB7F8948D
:104D300000E00093FF0005E90093FC0006E2009309
:104D4000FD002FBF41E024E039E08E010E94851E66
:104D5000002341F0EAE6F2E00081006800830FE3FF
:104D60000093280208810093090100910101046069
:104D700000930101009173020093040141E023E0DC
:104D800039E08E010E94851E002341F0EAE6F2E040
:104D90000081006800830FE30093280208810093DC
:104DA00007010091740200930501CDD200930B011D
:104DB0000091910200930A01009190020093080172
:104DC0000091760200930601009174020B3228F0E4
:104DD0000091CC0008600093CC00009172020F702B
:104DE00000930D01009172020295037000930C0173
:104DF000009100020395009300022196089500910E
:104E0000000102FF1CC02FB7F89400E00093FF00E0
:104E10000FEF0093FC0006E20093FD002FBF00910E
:104E2000E30102FF04C00091E30103FD03C007E0BA
:104E30000E94B01F009100020395009300020895A4
:104E400009E002C007E0FDCF8A93802F2FB7F894C6
:104E500000E00093FF0004E20093FC0007E20093EF
:104E6000FD002FBF00E00093E7000091E60000681E
:104E70000093E600EAE6F2E002810F7B028301E0A4
:104E80000093E800C2D3002371F0EAE6F2E000816B
:104E90000068008302E20093280200E000932902E8
:104EA0008093000208C001E00093E5000091000239
:104EB000039500930002CACEEAE6F2E0028106FF03
:104EC0002CC00091E600002341F52FB7F89400E0D4
:104ED0000093FF000CE50093FC0007E20093FD0047
:104EE0002FBF9FD3EAE6F2E002810F7B02830081AD
:104EF0000064008300910401009373020093920206
:104F0000009106010093760200939302038105FD50
:104F10007C9A00910002039519C00091590101FD8E
:104F200004C00091E6000023A9F002E00093E50030
:104F300000810068008304E2009328020091E600EB
:104F400000932902038105FF02C007E0D0CE09E0EB
:104F500000930002089508951091D5001F730091E9
:104F600080020F731017C8F01091DC001F710091C0
:104F700081020F71101788F02FB7F89400E00093AA
:104F8000FF000CEA0093FC0007E20093FD002FBF36
:104F90000091000203950093000208952FB7F89442
:104FA00000E00093FF000EEC0093FC0007E200938A
:104FB000FD002FBF00E80093E100009183020F7114
:104FC0001091E100102B1093E1000091E0000160CE
:104FD0000093E00000E80093DA00009182020F7372
:104FE0001091DA00102B1093DA000091D9000160C3
:104FF0000093D9007C9A169A169840D222D274CE89
:10500000EAE6F2E0028105FF23C02FB7F89400E042
:105010000093FF0000E00093FC0008E20093FD0015
:105020002FBF02810F7D02830091E0000E7F00936D
:10503000E0000091D9000E7F0093D900038102FFA8
:1050400002C006E054CE00910002039500930002D6
:1050500008952FB7F89400E00093FF0009E2009351
:10506000FC0008E20093FD002FBFEAE6F2E00281B7
:105070000F7B0283D6D2ADD205E00E945920EAE62A
:10508000F2E0028106FF08C00091E600002321F44F
:1050900002810F7B02830AC000810068008303E263
:1050A000009328020091E600009329020091DC00A1
:1050B00000680093DC000091D50000680093D500E3
:1050C00077D1EAE6F2E002810F7E028300810F7B56
:1050D000008308959A938A9300916D0280916E02E5
:1050E00090916F0248E09C0103FF39C001E712E094
:1050F0000E94851E002341F0EAE6F2E0008100688C
:1051000000830FE300932802089644E19C0109E71D
:1051100012E00E94851E002341F0EAE6F2E00081E1
:10512000006800830FE30093280244960DE812E024
:1051300020916D02237021F00596223008F005962B
:1051400045E09C010E94851E002319F1EAE6F2E089
:105150000081006800830FE3009328021AC001E772
:1051600012E00E940C20089644E19C0109E712E03D
:105170000E940C2044960DE812E020916D022370ED
:1051800021F00596223008F0059645E09C010E942A
:105190000C2089919991089560918F0250918E020F
:1051A00040918D0210907802222400917702400FE6
:1051B000511D621D0091810207FF16C0009166001B
:1051C00000936900009165000093680000916400FD
:1051D0000093670003E00FB9609366005093650089
:1051E000409364002FB8089510907A0200907902DD
:1051F00000916600009369000091650000936800CB
:10520000009164000093670003E00FB980011695D8
:105210000795401B510B60406093660050936500FA
:10522000409364002FB8400D511D621D60936900CA
:105230005093680040936700089508E100932E01A1
:105240000091840200932D0101E000932C01009154
:10525000850200932B0100918602009329010091A1
:10526000870200932A010091880200932601009191
:1052700089020093270100918A0200932401009182
:105280008B020093250100918C0200932301089565
:1052900000916D02007C12E01093E50029F401E218
:1052A0000093EC0003E00DC0003429F401E7009303
:1052B000EC0002E306C0003851F401E20093EC0078
:1052C00003E80093ED0000E00093EE000AC001E760
:1052D0000093EC0002E30093ED0008E00093EE0081
:1052E00000E00093EF0000916C0207FF0AC00091FC
:1052F000EC00007F0093EC000091EC000460009350
:10530000EC00009171020093E40000E00093E200E1
:10531000E1E7F2E0078507FF05C00091E2000460C5
:105320000093E200078506FF05C00091E2000860D7
:105330000093E200008906FF05C00091E2000062D0
:105340000093E2000895219700E0088341E025E002
:1053500039E08E010E94851E002341F0EAE6F2E06A
:105360000081006800830FE300932802009175021A
:1053700002950F70288122952F70109175021F7071
:1053800038813F70083008F0006F183008F0106F57
:10539000020F095F202F0AF420E02295207F022FC0
:1053A000130F195F212F0AF420E02F70022B25CD57
:1053B0000E94632D00E00FB9009360000093E800A5
:1053C00002E00093E500179A169AD39AD29AEAE679
:1053D000F2E0038104FF0CC00091CC00077F009332
:1053E000CC0000E00093020104E00093010121C021
:1053F000068103FF14C0077019F40E94731F11C0C7
:10540000023051F40091CC0005FF02C001E001C060
:1054100000E00E948A1F05C00E94261F02C00E9451
:105420005F1F00E0009301010091CC00047E009317
:10543000CC0000E0009300020093010200930202FE
:10544000089502E00093E50005E00093EC0000E021
:105450000093ED000093EE000093EF000093E7004F
:105460000091E60000680093E600EAE6F2E00281BF
:105470000F7B028301E00093E5000895E5E1F2E08F
:105480000081006800830A9800E000937F00009389
:105490007E0002E000937D0000917E02009379007F
:1054A00000917F0200937A0003B3066803BB08955E
:1054B000FA93EA931A930A931FB700E00093FF0050
:1054C00008E50093FC000AE20093FD00EAE6F2E042
:1054D0000081026077C01A930A931FB700E000931F
:1054E000FF000BE60093FC000AE20093FD00009130
:1054F000E0000D7F0093E00000916A0208680093CD
:105500006A0205E20093280200E0009329021FBF0F
:10551000099119911895FA93EA931A930A931FB770
:1055200000E00093FF000BE80093FC000AE2009308
:10553000FD00EAE6F2E00081046044C01A930A9399
:105540001FB700E00093FF000EE90093FC000AE2A1
:105550000093FD000091D9000D7F0093D9000091C8
:105560006A02006900936A0206E2CCCFFA93EA93DA
:105570001A930A931FB700E00093FF0006EB009315
:10558000FC000AE20093FD00EAE6F2E0028100641A
:10559000028319C0FA93EA931A930A931FB700E0A3
:1055A0000093FF000AEC0093FC000AE20093FD0068
:1055B00002E00093E500EAE6F2E002810062028385
:1055C0000081016000831FBF09911991E991F99150
:1055D00018957C98009160000F7D009360001798EB
:1055E00002E00093E50000E00093E20006E0009393
:1055F000EC0000E00093E7000091E60000680093F3
:10560000E60001E00093E80036CF2897ECE2F0E2F4
:105610008E0148E050E00E94282E0E94E72C289638
:1056200008950C94132D1FB7F8940093FF0043E1E5
:105630004093FC004BE24093FD001FBF10E010932D
:1056400092020E94D22500916D02006C00936D02BF
:1056500000916A0207FD08C000910702109108023C
:10566000009301021093020208952FB7F89400E00E
:105670000093FF0005E30093FC000BE20093FD00A4
:105680002FBF0C94292800919202089506E00C94F3
:10569000242700916C0206FF26C00091E60000233B
:1056A00011F52FB7F89400E00093FF0009E4009390
:1056B000FC000BE20093FD002FBF0E94112BEAE6D5
:1056C000F2E002810F7B02830091040100937302D8
:1056D000009392020181006801830091000203950A
:1056E0000093000208950091590101FD04C000914A
:1056F000E6000023A1F002E00093E5000E94112BD8
:10570000EAE6F2E000810068008308E200932802E4
:105710000091E6000093290206E00093000208953C
:105720001FB7F8940093FF0040E94093FC004BE260
:105730004093FD001FBF10E0109393020E94D225FA
:10574000EAE6F2E0038100640383008107FD08C0FC
:105750000091090210910A020093010210930202C3
:1057600008952FB7F89400E00093FF0001EB009339
:10577000FC000BE20093FD002FBF0C942928009140
:10578000930208952FB7F89400E00093FF0002EC15
:105790000093FC000BE20093FD002FBF0E94432604
:1057A00000E00093ED00089506E00C94242700919A
:1057B0006C0206FF26C00091E600002311F52FB70A
:1057C000F89400E00093FF0007ED0093FC000BE26B
:1057D0000093FD002FBF0E94112BEAE6F2E0028148
:1057E0000F7B0283009106010093760200939302DF
:1057F000018100640183009100020395009300027F
:1058000008950091590101FD04C00091E6000023B4
:10581000A1F002E00093E5000E94112BEAE6F2E01D
:1058200000810068008307E2009328020091E600EF
:105830000093290206E000930002089521E0D09829
:105840004CB546FF04C00DE1009328020FC027B5F8
:105850002E7F27BD24B1206C24B92598519A599ADE
:105860001DBD0CBD00E800934F0220E0022F0895FB
:1058700000E00CBDD09A04B10F7104B95198EFE467
:10588000F2E000810F77008308950EBD0DB507FF8C
:10589000FDCF0EB508950E94332ED801C901542EB4
:1058A000442400914F0207FF13C01AD000E00CC03F
:1058B000FD011191DF011EBD1DB517FFFDCF1EB506
:1058C000FC011193CF010395051590F30CD004C092
:1058D00043940CE100932802042DE6E00C943A2E48
:1058E00059980DB5D6CF599A0895EF93FF93FFB706
:1058F000FF93E0915002F09151020994E091580118
:10590000E77FE0935801FF91FFBFFF91EF9118955A
:10591000EF93FF93FFB7FF93E0915002F091510294
:105920000994E0915801EF77E0935801FF91FFBF90
:10593000FF91EF91189500E000930B0200930C0289
:1059400000930D0200930E0200930F02089521E0D0
:10595000EBE0F2E0308137FD24C0306830830898F6
:105960008F9820E221BBF8012681378120930C0219
:1059700030930D022481358120930E0230930F0263
:105980002091A20123602093A20122812093700024
:10599000218120937100238120937200008101BB3B
:1059A00020E0022F0895089800E201BB00E0009378
:1059B0000B02089A089500E0009310020093110270
:1059C000009312020093130200931402089521E041
:1059D000E0E1F2E0308137FD24C03068308309987F
:1059E000979820E222BBF80126813781209311028B
:1059F00030931202248135812093130230931402D4
:105A00002091590123602093590122812093740031
:105A1000218120937500238120937600008102BBB1
:105A200020E0022F0895099800E202BB00E00093F5
:105A30001002099A089500E00093150200931602DF
:105A400000931702009318020093190200931A02A0
:105A500000931B02089521E0E5E1F2E0308137FD7B
:105A600030C0306830830A989F9820E223BBF80149
:105A700020853185209316023093170226813781C5
:105A800020931802309319022285338520931A023D
:105A900030931B022091E10127602093E1012181D5
:105AA00020937D00228120937E0023812093790022
:105AB000248120937A00258120937F00008103BBFD
:105AC00020E0022F08950A9800E203BB00E0009353
:105AD00015020A9A089500E000931C0200931D022B
:105AE00000931E0200931F020093200200932102E4
:105AF00000932202089521E0ECE1F2E0308137FDCD
:105B000030C0306830830B98A79820E224BBF8019E
:105B10002085318520931D0230931E022681378116
:105B200020931F0230932002228533852093210287
:105B3000309322022091D20127602093D20121814B
:105B40002093860022812093870023812093820066
:105B5000248120938300258120938800008104BB49
:105B600020E0022F08950B9800E204BB00E00093B0
:105B70001C020B9A089500E0009323020093240274
:105B8000009325020093260200932702089521E046
:105B9000E3E2F2E0308137FD2FC0306830830C98AB
:105BA00020E020938C00F801208531852093240289
:105BB00030932502268137812093260230932702D5
:105BC0002091D50123602093D501F894248120935E
:105BD0008E00238120938D007894F8942281209365
:105BE0008B00218120938A007894258120938F0057
:105BF000008100938C0020E0022F08950C9800E0B3
:105C000000938C00009323020C9A08954A9512F099
:105C1000000FE1F70895000F111F4A95E2F708956C
:105C2000169507954A95E2F70895159507954A95B3
:105C3000E2F70895000F111F221F331F4A95D2F774
:105C4000089536952795179507954A95D2F70895A3
:105C5000AF93BF93D80105900D9241505040D9F7B2
:105C6000BF91AF9108955A924A92BA93AA939A9388
:105C70008A9308955D804C80BB81AA819981888137
:105C8000F0E0EC0FFD1FEF010895FFFFFFFFFFFFA6
:105C9000FFFFFFFFFFFFFFFFFFFFFFFFFFFFFFFF14
:105CA000FFFFFFFFFFFFFFFFFFFFFFFFFFFFFFFF04
:105CB000FFFFFFFFFFFFFFFFFFFFFFFFFFFFFFFFF4
:105CC000FFFFFFFFFFFFFFFFFFFFFFFFFFFFFFFFE4
:106BB000FFFFFFFFFFFFFF485F0500323031352F39
:106BC00031312F31392030393A30323A34350032D0
:106BD0003031352F31312F31392030393A30353A93
:106BE000353000FFFFFFFFFFFFFFFFFFFFFFFFFF4D
:106BF000FFFFFFFFFFFFFFFFFFFFFFFF0022D8F1B6
:106C00000C949E3F0C94483D1895FFFF1895FFFF8C
:106C10000C94FB3B1895FFFF1895FFFF1895FFFF9D
:106C20001895FFFF1895FFFF1895FFFF1895FFFFB8
:106C30001895FFFF1895FFFF1895FFFF1895FFFFA8
:106C40001895FFFF1895FFFF1895FFFF1895FFFF98
:106C50001895FFFF0C94333C0C94752C0C94882CE5
:106C60000C94B62A0C948B2A0C949E2A0C94582AC5
:106C70000C946B2A0C94CA2A1895FFFF0C94C63FFB
:106C80001895FFFF1895FFFF1895FFFF1895FFFF58
:106C90001895FFFF1895FFFF1895FFFF1895FFFF48
:106CA0001895FFFF1895FFFF1895FFFF1895FFFF38
:106CB0001895FFFF1895FFFF1895FFFF1895FFFF28
:106CC0001895FFFFFFFFFFFFFFFFFFFF00E80EB972
:106CD000739A78D00BB503FF05C003E10093060358
:106CE0000E942C370E94373E0E94011F8AD00E94CA
:106CF000261F0E949B2C0E94DB2C0E941B2D0E94B1
:106D00006B2D0E944A200E94F42400E800938E011B
:106D100002E000938E0110E000EC0E946B3F013016
:106D200009F4FFCF0E9447250E94E81B0E94AC3F58
:106D300078940DC0F89400910A03789400FB3EF417
:106D40000E941A1FEAE0F3E000810E7F00830E9498
:106D50004F3E00916C0204FF02C00E943526009154
:106D60006C0204FDF4CF0091000305FDF0CF00910B
:106D70000B03013069F0033071F40E94731F06E0C9
:106D800008BF08B7016008BF04E80DBB8895FCCFB9
:106D90000E945F1FF4CF023069F605E002BD00E0FB
:106DA00001BD00BD0FB30F7C0FBB0E945F1F06E04B
:106DB00008BF08B7016008BFFB98FA9AF99AFB9AD6
:106DC0008895FACFF0E0E0E0B0E0A0E090E080E06D
:106DD00070E060E050E040E030E020E010E000E0F3
:106DE000FE2EEE2EDE2ECE2EBE2EAE2E9E2E8E2E03
:106DF0007E2E6E2E5E2E4E2E3E2E2E2E1E2E0E2EF3
:106E0000089521970E9809B700FF20C041E023EABA
:106E100032E08E010E94851E088102FF17C0F8949F
:106E20000E945F1F04E00093EB000DE000000A9554
:106E3000E9F7249A2C9A02E800000A95E9F70881FC
:106E40000F7708830093EB007894FFCF2196089585
:106E500000008895FECFFFFF209106035527882765
:106E6000253108F0F9CFF7E3E9E3E20F20E0F21F64
:106E70000994F2CF13C019C01FC025C02BC033C066
:106E800039C048C08DC0A1C0A5C0A9C0ADC0B1C0A7
:106E9000B5C0B9C0BDC0C1C0C5C0D4C00FEF0AB92C
:106EA000002704B903B10BB9FDCF0FEF04B90027D8
:106EB0000AB909B105B9FDCF0FEF07B900270AB923
:106EC00009B108B9FDCF0FEF0AB9002707B906B11C
:106ED0000BB9FDCF002704B907B90AB90FEF05B9FF
:106EE00008B90BB9FFCF0FEF0AB907B91FE110932B
:106EF000EF01FFCF0E9478380BE00093750005E0AA
:106F00000093740006E000933200979A08E0009323
:106F1000F001FFCFF894539A549A5B985C9800E87C
:106F20001AE00093E3011093E30185E59AEAF2E0A9
:106F3000E0E08193F630E9F70291008180132EC0E2
:106F400090830291F130C9F701910081901326C01E
:106F500080830081801322C09193F630B1F7F2E074
:106F6000008190131BC08193F630D1F7F2E00081CD
:106F7000801314C090830081901310C08193F63069
:106F8000B1F7F2E00191801309C0F630D9F78535E9
:106F900019F480E09FEFCBCF5B9AFFCF5C9AFFCFD5
:106FA0000E9478380E9489380E94BC380E94E438D8
:106FB0000E9449390E94ED390E94093A0E94553BCE
:106FC0000E94933B0E94CA3B6CC30E9478380E9487
:106FD000893867C30E9478380E94BC3862C30E9417
:106FE00078380E94E4385DC30E9478380E9449399D
:106FF00058C30E9478380E94ED3953C30E947838F4
:107000000E94093A4EC30E9478380E94553B49C3FA
:107010000E9478380E94933B44C30E9478380E94B3
:10702000CA3B3FC3539A549A5B985C9818E11093FB
:107030006E0010936E0000914B0003FFFCCF5B9A33
:10704000A895FDCF0FE00AB903B10F700BB919B1C4
:1070500012951F7015B92FE01F9B22272093240043
:10706000309126001D9938601E9930613093EB00F5
:10707000EBCF0F930091CC0000610093CC0001E0B6
:107080000093CB000091CB000170D1F7009101017A
:107090000460009301010091000102FFFCCF0F91F9
:1070A00008950F930091CC0000610093CC0001E0A3
:1070B0000093CB000091CB000170D1F700910A0141
:1070C000006100930A0105E80093080107E00093BE
:1070D000060107E700930B01009101010160009395
:1070E0000101009102010061009302010F910895D6
:1070F000539A549A5B985C980E9439380E94513890
:10710000002700933A000093210000E4009322003E
:10711000089500E819E00093E3011093E3019F98BC
:10712000A798002700937D0001E00093860006E009
:1071300016E030E848E059E066279D9AA59A30931A
:10714000E5014093E501A79A9F9A00000000A798E7
:107150009F982091800046FD11272113A4C2209101
:1071600077002013A0C2000F450F403531F7309350
:10717000E5016093E5010895F89402E0009346006C
:1071800008E000936D00002711E029E04BE050E299
:107190000E94B53A10E028E00E94B53A12E020E0E3
:1071A0000E94B53A13E02BE050EC0E94B53A13E090
:1071B0002CE050E80E94B53A00E0009346000093AE
:1071C0006D0000931601089500E83CE00093E30190
:1071D0003093E30100E810E00093E5011093E5012E
:1071E0006EE370E080E2D6E0E0E8F1E00E94D73A9A
:1071F0006AE380E1D0E0E1E00E94D73A66E388E00C
:107200000E94D73A62E384E00E94D73A6EE282E0BD
:107210000E94D73A6AE281E0D1E00E94D73A66E262
:1072200070E8D3E00E94D73A62E270E4D6E0E1E091
:10723000F1E00E94D73A6EE170E2D6E8E0E00E9409
:10724000D73A6AE170E1D1E0E0E00E94D73A66E126
:1072500078E00E94D73A62E174E00E94D73A6EE08B
:1072600074E081E0D2E0F2E00E94D73A6AE074E094
:10727000D5E0F5E00E94D73A66E074E0DBE0FBE0A1
:107280000E94D73A62E074E0D6E1F6E10E94D73A74
:10729000089500E83CE00093E3013093E3010E948D
:1072A000013B0E94063B03E00093750002E000935F
:1072B0007D000E940B3B77E000007A95E9F7000023
:1072C00000000E94013B8D9AA59A00E830E00093EF
:1072D000E3013093E30190E0AEE2BEE2C0E0D0E033
:1072E000E0E00E94103B0E94063B00E839E000937A
:1072F000E3013093E30101E00093710000E00093AB
:107300007D0003E0009386000E940B3B77E00000C5
:107310007A95E9F7000000000E94013B00E830E0A8
:107320000093E3013093E301959A9EE2A0E0BEE270
:10733000DEE20E94103B0E94063B03E000937100D6
:1073400001E00093750002E0009386000E940B3B71
:1073500077E000007A95E9F7000000000E94013B09
:107360009D9AAEE2B0E0DEE20E94103B0E94063B36
:1073700000E838E00093E3013093E30100E000937C
:10738000710000937500009386000E940B3B77E02C
:1073900000007A95E9F7000000000E94013B00E838
:1073A00030E00093E3013093E3019D9A0E94103B8B
:1073B0000E94063B509A589803E000937D009F9AE4
:1073C00070E1589A58987A95E1F79F983091770034
:1073D0009EE0931368C19D9A0895F89402E000938B
:1073E000460008E000936D0012E0109316016091D2
:1073F00061016093610178941FEF4BE70E94313B7C
:107400001AEA40E50E94313B15E546E20E94313B15
:107410000895F89400E020E040E00E94313A0E9494
:107420005C3A01E024E040E00E94313A0E945C3A7C
:1074300000E020E040E00E94313A0E945C3A0FEF09
:1074400000933A00009321000FEB0093220001E02B
:1074500024E00E94313A00E020E043E70E945C3AD9
:10746000089500934C000093B00100932F002093E7
:1074700045010093E6010093160100933D0000933F
:10748000E901009371000093750000937D00009363
:10749000860000938C0000935000209365010093B8
:1074A00090010093F7000093AB010093DD0000937F
:1074B000D6002093E200089530914C003013F3C0C1
:1074C0003091B0013013EFC030912F003013EBC07A
:1074D000309145013213E7C03091E6013013E3C02B
:1074E000309116013013DFC030913D003013DBC006
:1074F0003091E9013013D7C0309171003013D3C0FF
:10750000309175003013CFC030917D003013CBC067
:10751000309186003013C7C030918C003013C3C047
:10752000309150003013BFC0309165013213BBC0A1
:10753000309190013013B7C03091F7003013B3C0D1
:107540003091AB013013AFC03091DD003013ABC0D0
:107550003091D6003013A7C0309120013413A3C05E
:107560003091E20032139FC008950093160160919C
:107570006101609361017894109316015093150195
:1075800060E86093E3012093E30177278827146084
:107590001093160182FFFECF739581FFFDCFF89403
:1075A0006093E3010093E30147137DC008950E94B7
:1075B000013B0E94063B60937100609375006A95E1
:1075C00060937D00609386000E940B3B00E818E00A
:1075D00020E00093E5011093E50100007A95E9F7BA
:1075E0007A958A950000C9F70093E5012093E5019B
