:108000000C94B95A0C948F431895FFFFFFFFFFFFA4
:108010000C94824D0C94F4570C9446580C942558AB
:108020000C94C14E0C9452580C9460580C946E5899
:108030000C947C580C94A6580C948A580C9498581C
:108040000C94D0580C949D4D0C94C2580C948A4DAD
:108050000C94A54D0C94DC400C94752C0C94882C3D
:108060000C94B62A0C948B2A0C949E2A0C94582AB1
:108070000C946B2A0C94CA2A0C94DF110C94275987
:108080000C940B5A0C941B530C944B530C947A5332
:108090000C942B540C9487550C94A3550C94E653D4
:1080A0000C9466550C94AD240C944A550C941E55B2
:1080B0000C94834E1895FFFF1895FFFF1895FFFF4E
:1080C0001895FFFFFFFFFFFFFFFFFFFFFFFFFFFF11
:1080D0000E0EC0DEA5A5C0DE0024486C90B4D8FC0E
:1080E0000C1919000910101010001E1100000B0AC5
:1080F000275158517E51A3517E51A351B052D351B3
:10810000E551F451275158517E51A3517E51A3514D
:108110006151A351B052D351E551F4517A0070042A
:10812000000016005A0490B68401480000020000C6
:1081300000000000FFFFFFFFFFFFFFFFFFFFFFFF4B
:10814000FFFFFFFFFFFFFFFFFFFFFFFFFFFFFFFF3F
:10815000FFFFFFFFFFFFFFFFFFFFFFFFFFFFFFFF2F
:10816000FFFFFFFFFFFFFFFFFFFFFFFFFFFFFFFF1F
:10817000FFFFFFFFFFFFFFFFFFFFFFFFFFFFFFFF0F
:1081800028C0CCC22FC032C0C9C234C081C0CEC04A
:1081900011C156C16CC185C1C4C103C21BC22CC26E
:1081A000BDC2BCC238C23CC2B9C255C2B7C25AC2B3
:1081B00092C2B4C2A0C2B2C29F93EF93FF93FFB723
:1081C000FF939EB59B3108F0A9C2E0ECE90FF0E403
:1081D00009949CB59F779CBDFF91FFBFFF91EF91E4
:1081E0009F911895F091D500FEBDF3CFF091DC0082
:1081F000FEBDEFCFFF27FEBDE9E0E0935801E6E0CA
:10820000E0935002E1E4E0935102E3CFF0E0E0912B
:10821000E100E7FBEF77F0FDE068E093E100F0912B
:10822000DF00FEBDE091E100E7F9E093E100EEB58B
:10823000EA95E0935402E0E8E0935801E6E2E09327
:108240005002E1E4E09351020C947E2CF0E0E091C6
:10825000E100E7FBEF77F0FDE068E093E100E091FB
:108260005402E03061F0F091DF00FEBDEA9539F094
:10827000F0915701F6FFB9F7E0935402E0E8E0937C
:108280005801E091E100E7F9E093E1000C94962CAD
:10829000FF27FEBDE9E0E0935801E4E5E0935002DA
:1082A000E1E4E093510295CFF0E0E091DA00E7FBE2
:1082B000EF77F0FDE068E093DA00F091D800FEBDC2
:1082C000E091DA00E7F9E093DA00EEB5EA95E093A1
:1082D0005402E0E8E0935801E4E7E0935002E1E45F
:1082E000E09351020C947E2CF0E0E091DA00E7FB81
:1082F000EF77F0FDE068E093DA00E0915402E030BF
:1083000061F0F091D800FEBDEA9539F0F091570187
:10831000F6FFB9F7E0935402E0E8E0935801E091EA
:10832000DA00E7F9E093DA000C94962CFF27FEBD03
:10833000FEBDEBE0E0935801E3EAE0935002E1E494
:10834000E093510246CFEEB5E0935402FEB5F093B0
:108350005302FEB5F0935202E43008F0E4E0E86026
:10836000E0935801EAEBE0935002E1E4E09351021C
:108370000C94832C9F938F9380915402F09153021D
:10838000E09152029EB591938A9571F090915701B8
:108390009770C1F780935402F0935302E093520216
:1083A000843008F084E08860809358018F919F9119
:1083B0000C94832CFF27FEBDFEBDFEBDEBE0E093D9
:1083C0005801E8EEE0935002E1E4E093510201CF5E
:1083D0009F93EEB5EA95E0935402FEB5EEB5919108
:1083E0009EBDF0935302E0935202E0E8E0935801FF
:1083F000E1E0E0935002E2E4E09351029F910C949B
:10840000832C9F938F9380915402E0915202F091BC
:108410005302803079F091919EBD8A9559F09091E8
:10842000570196FFC1F780935402E0935202F093F4
:10843000530280E8809358018F919F910C94962C61
:10844000FF27FEBDFEBDEBE0E0935801EDE2E093B7
:108450005002E2E4E0935102BCCEEEB5E2BDEEB5CF
:10846000E1BDEEB5E0BDFA9AF99A0C947E2CFF2797
:10847000FEBDFEBDEAE0E0935801E6E4E093500261
:10848000E2E4E0935102A5CE0C947E2CF999FCCF46
:10849000EEB5E2BDEEB5E1BDF89AE0B5EEBD0C94E7
:1084A0007E2CFF27FEBDE9E0E0935801EDE5E09367
:1084B0005002E2E4E09351028CCEEEB5E093540218
:1084C000E43008F0E4E0E860E0935801EEE6E09381
:1084D0005002E2E4E09351020C94832CF1E0E0912D
:1084E000DA00E7FBEF77F0FDE068E093DA00E09177
:1084F0005402FEB5F093D800EA9551F0F09157017F
:10850000F770B9F7E0935402E4300CF0E4E0E8606F
:10851000E0935801E091DA00E7F9E093DA000C9477
:10852000832CFF27FEBDE9E0E0935801EDE9E093DD
:108530005002E2E4E09351024CCEEEB5E0935402D7
:10854000E43008F0E4E0E860E0935801EEEAE093FC
:108550005002E2E4E09351020C94832CF1E0E091AC
:10856000E100E7FBEF77F0FDE068E093E100E091E8
:108570005402FEB5F093DF00EA9551F0F0915701F7
:10858000F770B9F7E0935402E4300CF0E4E0E860EF
:10859000E0935801E091E100E7F9E093E1000C94E9
:1085A000832CFF27FEBDEAE0E0935801EDEDE09358
:1085B0005002E2E4E09351020CCEEEB5E093D10319
:1085C000E091CD03E068E093CD03EEB5E093D203F4
:1085D0000C947E2CEAE0E0935801E4EFE093500223
:1085E000E2E4E0935102F5CDEEB5E093D003EEB5B1
:1085F000E093D2030C947E2CE9E0E0935801E6E08E
:10860000E0935002E3E4E0935102E3CDF091CE0316
:10861000E091CF030994EDEFFBE694919EBDD9CD97
:10862000EDEFFBE694919EBDE9E0E0935801EEE1A9
:10863000E0935002E3E4E0935102CBCDFFEFE0EF93
:108640008F939F9383E095919EBD8A95E1F79F91CB
:108650008F910C947E2CF8E1F0936E00F8E0F0938B
:108660006E00FFCFE9E0E0935801ECE3E0935002A5
:10867000E3E4E0935102ADCDFEB5E0E0EABDFF706A
:10868000F03019F4D49A0C947E2CD498F093E6012F
:1086900000000000000000000000000000000000DA
:1086A000000000000000000000000000F160FABDC2
:1086B00000000000000000000000000000000000BA
:1086C000000000000000000000000000F061F093D6
:1086D000E6010C947E2CFF27F4B9F7B9FAB9EFEF55
:1086E000E5B9E8B94298EBB9FF99FECFE8B7EB607E
:1086F000E8BF88956ECDEAE0E0935801E5E8E093A5
:108700005002E3E4E093510264CDFEB5EEB5EE0F06
:10871000FE2BF068F093D3030C947E2C5ACDFF937C
:10872000EF93FFB7FF93499B10C0F0915701F86892
:10873000F0935701F0915801F777F0935801E091C9
:10874000CD03EF7DE093CD0314C0F0915701F8689D
:10875000F09357010000FF27FEBDFEBDFCB5F06899
:10876000FCBDF8B7FE7FF8BFE091CD03E062E09377
:10877000CD03FF91FFBFEF91FF91189500E0EEEC64
:10878000F3E0008301830093C0030093C1030093CF
:10879000C2030093C3030093C4030093C503009373
:1087A000C6030093C7030093C8030093C903009353
:1087B000CA030093CB030093CC030093CD03009333
:1087C000D0030093D1030093D2030093D30300930B
:1087D000D4030093D5030093D6030093D7030093EB
:1087E000D9030093DA030093DB030093DC030895BD
:1087F000E0ECF3E00585006105870E94E81B00912D
:10880000A10207FD10C000E80E944D1CE8EDF3E056
:1088100000810F7E0083E0ECF3E005850F7E058785
:108820000381006203830895E0ECF3E005850860AE
:1088300005870E94E81B0091A10207FD10C000E41B
:108840000E944D1CE8EDF3E000810F7D0083E0EC19
:10885000F3E00585077F05870381006103830895A1
:108860000091DA030770013019F40EE618E002C037
:108870000CE618E00C94975700E01091D90316FD10
:1088800000E815FD006412FD006214FD0061109106
:10889000DA0312951370012B086008958A93F894F7
:1088A0000091D0030093D80300E00093D00300911F
:1088B000D2030F730093DA0300E00093D20378949D
:1088C0000093D903D9DF802FCBDF98010091D80323
:1088D00007FF04C0082F0E94132B0DC005FF02C024
:1088E000A3DF09C004FF02C083DF05C003FF03C08C
:1088F000082F0E94902B899108958A93E0ECF3E071
:1089000005850F770587F8940091D1030093D9036B
:1089100000E00093D1030091D2030F730093DA03B8
:1089200000E00093D20378940091D9030370A9F476
:1089300000916C0204FF02C00E9428260091D90316
:1089400004FF06C00E94DA1F07E00E94B01F0CC09F
:108950000E94261F0E94CD1F07C08EDF802F80DF60
:108960009801082F0E94D225C6CF8A930091CD038B
:1089700007FDC3DF0091D003002309F08FDF0091D2
:10898000D3030023E1F0F8948091D3038F7700E0C4
:108990000093D30378940CE618E00E9497578E7FDB
:1089A00021F00EE618E00E9497574BE298010AE684
:1089B00015E00E94851E002311F00E94E6579BCF10
:1089C0008F93EF93FF93EFB7EF93E0914003F09114
:1089D00041030995EF91EFBFFF91EF918F911895AA
:1089E0008F93EF93FF93EFB7EF93E0914203F091F2
:1089F00043030995EF91EFBFFF91EF918F91189588
:108A0000F3B1E0914403F0934403EF278091CB034B
:108A10008E2B8093CB03F0916C00EF23F091F20347
:108A2000EF23E03011F00E94D6570895F9B1E0919C
:108A30004503F0934503EF278091CC038E2B809361
:108A4000CC03F0916D00EF23F091F303EF23E030BE
:108A500011F00E94D657089543B14093440349B1A1
:108A600040934503E0E4F3E00083118322833383E2
:108A70000895229701E80EB9739A0E947F500E94D0
:108A8000BE430BB50093CA0300E00BBD0E94011F5B
:108A90000E944A200E94DD4E013011F40E94F157DD
:108AA0000E94F42400E800938E0102E000938E01FE
:108AB00002E10093620101E002BF14E008E00E94BD
:108AC0009C470E94BF550E94565A0E9447250E940B
:108AD000F4470E947F200E94E81B0E943A100E94E7
:108AE000004F789400E00883098342E02CE638E0E8
:108AF0008E010E94851E44E128813981285F3F4F05
:108B00000BEB14E00E94851E0091C60400FF02C01A
:108B10000E941D4C0091C60405FD3DC00E94454CBD
:108B20003AC000E10E94F74A00E00093620114E0BD
:108B300008E00E949C4700917604007A003819F4FE
:108B4000409A0E94DE4C009174040073003111F4CD
:108B50000E941D4C05E00093F40300916C0204FD9B
:108B60001AC00091CD0305FD16C0E3E7F4E00381D0
:108B700005FD11C0018105FD0EC041980E94011F35
:108B80000E94731F0091F4030E941A1FE4EFF3E0A8
:108B900000810E7F00830E94261F10B104E0102781
:108BA00010B90091DA0407FF02C00E943F4E009105
:108BB000DB0406FF02C00E94C24D00917204013026
:108BC00009F0B9CF0E94384800917004013009F0D3
:108BD000A8CF08E0A7CF0E94E05AC801A22F242FF7
:108BE000A13118F510E2032F0E945C104A2F50E0CB
:108BF0009C010EE212E00E940A5BA03148F420E1E1
:108C00002A1B0EE212E0B0E00A0F1B1F0E94042094
:108C10000E94081100912A0207FD07C04A2F50E068
:108C20002EE232E08C010E940A5BE4E00C94E75AE9
:108C30000091760400690093760406EA00937B04B1
:108C4000089500917804013011F401E809C0023060
:108C500011F402E805C0033011F403EC01C004E88C
:108C6000009378040091760400690093760405EA85
:108C7000E5CF1091D804113011F411E003C0109128
:108C80007B04139510937B0410917A04002321F147
:108C900020917804201781F4133008F413951330D1
:108CA00028F0E3E7F4E00381006403830091D80433
:108CB0000E33F8F0C6DF1DC0112311F01A9529F408
:108CC000E3E7F4E023812F7B23832091760426FDC4
:108CD00010C0009378040DC0112311F01A9549F4C7
:108CE000E3E7F4E0038106FF02C0A2DF02C00061F7
:108CF000038310937A0400917B04089500E00E949E
:108D0000E9200E9493200E94585108E000935104EA
:108D10000AE10093540407E00093520400E6009334
:108D2000530400E00093550400000091B10100FFDE
:108D3000FBCF08950091B2010F770093B20100912B
:108D4000B001037D0093B0010091B0010061009378
:108D5000B00130E023E008E00093B40102E0309F6E
:108D6000F001E358FB4F00810093B801F001E35894
:108D7000FB4F01810093B901F001ED57FB4F0081DA
:108D80000093BA01F001ED57FB4F01810093BB0145
:108D9000F001EC56FD4F06810093BC01F001EC564A
:108DA000FD4F07810093BD01F8940091B00102606E
:108DB0000093B0010091B40103FFFCCF0091BE010C
:108DC0001091BF01F001E757FB4F008311833395EA
:108DD0002A9509F608E00093B4010895BA93AA937E
:108DE000219741E02FE730E08E010E94851E46E08A
:108DF00024E830E00FE814E00E94851E46E02BE7EF
:108E000030E005E914E00E94851EAFE8B4E0ED9182
:108E1000FC91EF3FFF4F31F4EFE8F4E000E01AE09F
:108E200000831183A1E9B4E0ED91FC91EF3FFF4F86
:108E300031F4EFE8F4E000E01AE002831383A3E9E1
:108E4000B4E0ED91FC91EF3FFF4F31F4EFE8F4E037
:108E500000E01AE004831583A5E9B4E0ED91FC91EC
:108E6000EF3FFF4F31F4E5E9F4E000E01AE0008362
:108E70001183A7E9B4E0ED91FC91EF3FFF4F31F48E
:108E8000E5E9F4E000E01AE002831383A9E9B4E025
:108E9000ED91FC91EF3FFF4F31F4E5E9F4E000E0A4
:108EA0001AE00483158300E0088345E954E02FE8C5
:108EB00034E00E948B223EDF10E003E022E0129FAC
:108EC000F001E757FB4F2081F001E556FB4F20836F
:108ED000F001E757FB4F2181F001E556FB4F21835D
:108EE00013950A9559F721EA34E00BE914E00E9442
:108EF0007323009194020093A50407FD06C023EAA2
:108F000034E001EA14E00E94E6232196A991B99188
:108F10000895EFE8F4E000E004830583028303830F
:108F200000830183E5E9F4E011E004831583028303
:108F30001383008311830895249729B5216029BDE7
:108F400029B521FFFDCF24E02093A9012093A8019A
:108F500025E02093A70107680FBD00EC00BF0BB709
:108F6000006D0BBF01E00093A6011ABF00E808BB2B
:108F700044E02CE630E08E010E94851E0A810093B9
:108F800090010981009391010881009392010B8166
:108F9000009393010FEF00939501009396010093C6
:108FA00097010093980108E10093940100939901BF
:108FB00000939A010FEF0093A40109E000939B0135
:108FC00004E000939F010091D80100630093D80151
:108FD00005E40093D70100E000937004009371044E
:108FE000009372042496089500E000939402009385
:108FF00095020C947F209A938A93C8010E947E4622
:109000000DEE12E001501040E9F700C000009C0195
:1090100001E514E00E94442103E00A95F1F7000005
:109020000091950207FFFCCF813039F420E030E059
:1090300003E814E00E94E92118C08823B1F420E07D
:1090400030E00DE714E00E94E9210091C101009396
:10905000B7040091C2010093B8040091C3010093CA
:10906000B9040091C4010093BA04899199910895BB
:1090700009B5016009BD09B501FFFDCF08B3009333
:109080007C04002371F020E019B3F0E0E22FE35BF1
:10909000FC4F158323950A95B9F700917C04009342
:1090A0004D0309B50E7F09BD0895002321F09CDF13
:1090B00010E001E0A0DF46E024E830E003E814E03F
:1090C0000C94BA1E229700E00883098342E02CE644
:1090D00038E08E010E94851E49E0288139812D5E8D
:1090E0003F4F06EC14E00E94851E0091C60400FD6F
:1090F00014C000E20093CE040091C6040360009304
:10910000C60407E00093CA0449E0288139812D5E36
:109110003F4F06EC14E00E94BA1EE3E7F4E0018141
:109120000061018322960895BA93AA9322973FE0A3
:1091300020E001E813E00E946F5A01E000938403ED
:109140002091B6040091D104000F0E702170022B03
:109150001091CF041295107F012B0093850300918D
:10916000CF040023D1F00A9509F49FC00A9509F4B1
:109170008DC0025009F4B4C0015070F0045008F1E1
:109180000A9509F4D3C00A9509F432C1035009F4D1
:10919000C2C10A9509F4C7C103C2E2EDF4E000813F
:1091A000118122813381EFE7F3E007831087218764
:1091B000328744E02CE630E00AE813E00E94851E86
:1091C000EEC10E94EE460091A10400938603009137
:1091D000A204009387030091A504009388030091E3
:1091E000B704009389030091B80400938A030091A7
:1091F000B90400938B030091BA0400938C03D698B2
:1092000000E20DBB42E02AE238E08E010E94851E9A
:10921000088119810E946F1044E023E533E00DE8D6
:1092200013E00E94645AE2EDF4E000811181228192
:109230003381EFE7F3E0028B138B248B358B40E116
:1092400025E833E006EA14E00E94645A26EA34E096
:1092500001E811E00E94901100E80DBBF09BFECFE9
:10926000F09A20E000E110918101F0E0E22FEA5550
:10927000FB4F108323950A95B1F744E026EA34E0CA
:109280000DE813E00E94645AD69A8AC100915303F4
:1092900010E04DE250E00E94CB5A980120533F4F1E
:1092A0004FE004E513E00E94BA1E44E02CE630E0F3
:1092B00006E813E00E94851E0091530310E04DE282
:1092C00050E00E94CB5A980120533F4F4FE00AE8EC
:1092D00013E00E94851E00915303009389035FC130
:1092E0000E94EE460091A104009386030091A2041F
:1092F000009387030091A504009388030091B704AD
:10930000009389030091B80400938A030091B90483
:1093100000938B030091BA0400938C0300915203D5
:109320000695069503700093D6043AC10E94EE4656
:109330003091A2040091A104EFE7F3E0058F368F8E
:109340000091A504078F0091B70407830091B8042A
:1093500000870091B90401870091BA040287EFE801
:10936000F4E004811581EFE7F3E003871487EFE869
:10937000F4E002811381EFE7F3E005871687EFE859
:10938000F4E000811181EFE7F3E00787108BEDE750
:10939000F4E004811581EFE7F3E0018B128BEDE738
:1093A000F4E002811381EFE7F3E0038B148BEDE728
:1093B000F4E000811181EFE7F3E0058B168BE3E821
:1093C000F4E004811581EFE7F3E0078B108FE3E809
:1093D000F4E002811381EFE7F3E0018F128FE3E8FD
:1093E000F4E000811181EFE7F3E0038F148FD7C021
:1093F000A3E5B3E0ED91FC91EF3FFF4F71F4A5E5DC
:10940000B3E0ED91FC91EF3FFF4F39F4A7E5B3E0F6
:10941000ED91FC91EF3FFF4FF1F0EDE4F3E00681B9
:109420001781E5E9F4E004831583EDE4F3E00085BA
:109430001185E5E9F4E002831383EDE4F3E00285AE
:109440001385E5E9F4E00083118346E02BE730E083
:109450008F010E94BA1EA9E5B3E0ED91FC91EF3FA8
:10946000FF4F41F1ABE5B3E0ED91FC91EF3FFF4FD2
:1094700009F1ADE5B3E0ED91FC91EF3FFF4FD1F085
:10948000EDE4F3E004851585E3E8F4E00483158357
:10949000EDE4F3E006851785E3E8F4E00283138347
:1094A000EDE4F3E000891189E3E8F4E0008311833F
:1094B00000E0FBDDE5E9F4E004811581EFE7F3E08E
:1094C00007831087E5E9F4E002811381EFE7F3E019
:1094D00001871287E5E9F4E000811181EFE7F3E00D
:1094E00003871487EFE8F4E004811581EFE7F3E0E8
:1094F00005871687EFE8F4E002811381EFE7F3E0D8
:109500000787108BEFE8F4E000811181EFE7F3E0CB
:10951000018B128B44C046E02AE534E006E813E0F4
:109520000E94645A3CC000915703033030F544E078
:109530002CEC30E8049F200D311D08E513E00E945B
:109540008D5A002311F001E001C000E0002381F4F6
:1095500004E010E0ECECF0E820915703209FE00DD0
:10956000F11D30E0A8E5B3E00E94F25A012B29F08A
:10957000009157030093D70403C000E00093EF0469
:10958000EDE4F3E00681178120853185EFE7F3E014
:1095900007831087218732870091D704038792DDE4
:1095A0002296A991B99108957ED00023F9F0409AAE
:1095B000BBDD06E00E94172020E003E030E01FEF53
:1095C000EFE7F3E0E20FF31F128323950A95C1F74B
:1095D0000EEF009384030E949F4C0AB50170009324
:1095E000B60400E00093E601D49A409808951091E3
:1095F0007C041230C0F11091520312951F70109329
:10960000CF040093D004087169F10091D004000FD9
:10961000000F000F1091D004102B1093D004E09194
:10962000CF04F0E0E05AFB4F00810023C1F0DCDC06
:10963000419B02C0419801C0419A11E000E0DBDC8F
:1096400003E911E101501040E9F700C00000419B1F
:1096500002C0419801C0419A10E001E0CCDC00E07A
:109660000093D604A1DF08951091B2011F7B1093DF
:10967000B20100233091B9010091B80119F4EDE76E
:10968000F4E002C0E3E8F4E0008331833091BB01F1
:109690000091BA01028333833091BD010091BC0176
:1096A000048335830895229741E028E730E001EDF7
:1096B00014E00E94851E44E020EB38E002ED14E047
:1096C0000E94851E0091CF040A9569F00A9559F011
:1096D000025061F10A95B1F00A95A1F00A9549F09E
:1096E0000A9539F015C00091D004007C0038A9F427
:1096F000A2C000915203069507701091D104011782
:1097000009F099C00091D004007C003879F493C02E
:109710000091D004007C003449F400915203069576
:1097200007701091D104011709F085C00091CF0492
:109730000A9529F00A9519F00950C9F005C0009161
:10974000D704002309F477C00091CF040A9551F0A3
:109750000A9541F0045091F0025081F0075009F44D
:1097600058C00AC000915303003230F064C0009129
:10977000D704013009F05FC001E0D4CCD69800E2F4
:109780000DBB42E02AE438E08E010E94851E08816C
:1097900019810E946F100AE00A95F1F744E023E571
:1097A00033E006EA14E00E94645A44E02CE0042FFF
:1097B000F0E00370E02FEA55FB4F0081F0E0E42F6A
:1097C000EA55FB4F008343952A9589F726EA34E052
:1097D00001E811E00E94901100E80DBBF09BFECF64
:1097E000F09A20E000E110918101F0E0E22FEA55CB
:1097F000FB4F108323950A95B1F7D69A44E027E5ED
:1098000033E006EA14E00E94795A002309F0B4CF4D
:1098100012C0E2EDF4E00081118122813381EDE498
:10982000F3E0468157816085718504171507260787
:10983000370709F4A1CF00E0A0CF229700E008830A
:10984000098342E02CE638E08E010E94851E41E04B
:10985000288139812D5E3F4F06EC14E00E94851E61
:10986000EBEBF4E0038500FF0BC00E7F038741E0C4
:10987000288139812D5E3F4F06EC14E00E94BA1E0C
:10988000E3E7F4E001810F7E4CCC229700E00883EF
:10989000098342E02CE638E08E010E94851E42E0FA
:1098A000288139812D5E3F4F06EC14E00E94851E11
:1098B000EBEBF4E0038505FD0DC0006203870BE0D0
:1098C000048742E0288139812D5E3F4F06EC14E089
:1098D0000E94BA1EE3E7F4E00181086022CC419BBC
:1098E00002C0419801C0419AE091CF04F0E0E052FB
:1098F000FF47049100937F030E94472521E833E04E
:1099000000917F030E94A0250CE618E00E94975763
:10991000980108E40E94D2250E94352600916C022D
:1099200004FDFACF0E9428260091CC000F7E009300
:10993000CC00419B02C041980895419A08959A93A2
:109940008A9380E090E00091CF04053011F006305A
:1099500099F492E080918503869587700091520377
:1099600006950770801B87FB0EF48C5FE82FF0E0F4
:10997000E852FF4784918D5FB2DF992351F088232D
:1099800041F0082F0E94484EE3E7F4E001810062B5
:10999000018389919991089500E0009388000E94C5
:1099A0005F4EE3E7F4E001810F7D0183EAEDF4E02F
:1099B00000810F77008393DF0C94B32D9A938A93E1
:1099C00022970EEF0093910300E00093B10340E073
:1099D0003091780420E000E610E00E94E25690E02A
:1099E00083E040E150E02FEF30E001E813E00E9417
:1099F000195B00917804033C59F548E050E023EBF3
:109A000033E002E913E00E940A5B42E02AE238E018
:109A10008E010E94851E40E1288139810AE913E008
:109A20000E94851E40E030E420E10AE913E00E9434
:109A3000EB4528E102E913E00E949B5A1093AA0328
:109A40000093AB030E94472521E833E00BE217C0E7
:109A500020E00DE0E22FF0E0EF54FC4F1281E22F06
:109A6000F0E0E158FC4F138B23950A9599F70DE030
:109A700000939F030E94472521E833E00FE10E94F5
:109A8000A02500917804013841F00CE618E00E940E
:109A900097579801092F086406C00EE618E00E9447
:109AA0009757980108E40E94D2250E94352600911C
:109AB0006C0204FDFACF0E94282693958A9509F03E
:109AC00090CF0091CC000F7E0093CC004098E3E74C
:109AD000F4E003810F77038300916D00006200932F
:109AE0006D0000916D00006400936D0000916D00A9
:109AF000006800936D0000E0009362012296899156
:109B000099910895FA93EA931A930A931FB7EBED8C
:109B1000F4E00AC0FA93EA931A930A931FB7E9EDA7
:109B2000F4E00081006802C00081006400831FBF70
:109B300009911991E991F9911895FA93EA931A9379
:109B40000A931FB7EAEDF4E0ECCFFA93EA931A9385
:109B50000A931FB7E9EDF4E0E7CF2C972883398308
:109B60000B831C8302E00D8300E00E830F830887C4
:109B700009878E010E947B2D013011F40E94F1575C
:109B80002C960895EBEDF4E000810F7B0083E3E772
:109B9000F4E001810064018300916D000F7D00936A
:109BA0006D0000916D000F7B00936D0000916D00C2
:109BB0000F7700936D0003810062038300E0009340
:109BC000D8043AE124E808E410E0C7CF0C94394601
:109BD00000810F7700830895EAEDF4E000810F77AC
:109BE00000830091D804002341F4009176040F7A99
:109BF00000937604006200937604419B02C0419872
:109C000001C0419A0091D80403950093D80409B18A
:109C1000009502950F700695E3E7F4E0138114FDBB
:109C200004C01091D8041C3448F101810F7B0183DA
:109C30000E94B32D00E00093880003E000936101CF
:109C4000E3E7F4E0038107FD0FC000916D000062BF
:109C500000936D0000916D00006400936D00009111
:109C60006D00006800936D00419800E00093D804F7
:109C700003810F7D0383EAEDF4E0AACFA7CF009123
:109C8000740406FDA9CF05FF02C00E94CC4C0895C4
:109C900010916D001F7D10936D0010916D001F7B62
:109CA00010936D0010916D001F7710936D0036E0DA
:109CB00024E810E049E152E00E94CB5A86CF0E948E
:109CC000FE2D00E000938F00E9EDF4E000810F77B6
:109CD0000083E3E7F4E001810F77018300916D00D9
:109CE000006200936D0000916D00006400936D00B0
:109CF00000916D00006800936D00089509BD19B5CD
:109D00001017E9F708958A93FA93EA933A922A9200
:109D10001A920A927A936A935A934A933A932A939D
:109D20001A930A938FB70091E3011091CC001F7D25
:109D30001093CC0010E81093E3010F7B0093E30134
:109D40000091E4010E7F0093E401E0ECF3E0008178
:109D5000086000830091E80303FF02C00E94D65709
:109D60008FBF09911991299139914991599169911F
:109D700079910990199029903990E991F9918991F7
:109D800018958A93FA93EA933A922A921A920A922F
:109D90007A936A935A934A933A932A931A930A931B
:109DA0008FB7E0ECF3E00081016000830091E803ED
:109DB00000FF02C00E94D657D3CF0E949B2C0E9466
:109DC000DB2C0E941B2D0E946B2D0E94BB2D52D0BC
:109DD000013091F0E4D0013079F086D0013061F0AB
:109DE000A1D0013049F0BFD0013031F05CD1013059
:109DF00019F074D1013011F401E0089500E00895E4
:109E000040984198389A399A5D9A5E9A5F9A559A25
:109E1000569A579A00916D00006200936D00009170
:109E20006D00006400936D0000916D000068009368
:109E30006D0002E006BD06B5026006BD0CB50F73ED
:109E40000CBD0DB50F740DBD00E00093760402E06B
:109E500006BD08958A9381E000E0009319044DE067
:109E600020E134E007EE13E00E94851E002309F490
:109E700080E0E1C08A9381E046E02DE134E00DED21
:109E800013E00E94851E002371F50091DD030ABBDB
:109E90000091DE030F7101B90091DF0302B90AB32B
:109EA000D5981091E003109315011091E1031093E0
:109EB00016010ABBEDEDF3E00581017000FB56F4DD
:109EC0001091CA00102B1093CA0000000091CA0024
:109ED00002FFFBCF058107FD02C00E94261F08E09C
:109EE0000E94F61E80E0A7C09A938A9391E08EB1FB
:109EF00042E023E234E00DED13E00E94851E0023D2
:109F000069F40091DD030C778378082B0093DD035F
:109F10000EB90091DE030093F40390E0092F8991BC
:109F2000999108958A9381E045E025E234E00DEDB2
:109F300013E00E94851E0023A9F40091DD03009325
:109F400052010091DE03009353010091DF0300935F
:109F500054010091E003009355010091E103009347
:109F6000640180E068C09A938A9381E09FB742E0E1
:109F70002AE234E00DED13E00E94851E002369F40F
:109F80000091DD0300FF04C0F894759A769A9FBF94
:109F90000091DE030093560180E0082FC0CF8A9322
:109FA00081E045E02CE234E00DED13E00E94851ED7
:109FB000002399F40091DD0306BD0091DE0307BD87
:109FC0000091DF0300936B000091E00300936C00AD
:109FD0000091E10300936D0080E02DC08A9381E041
:109FE00042E021E334E00DED13E00E94851E0023E2
:109FF00079F40091DD0304B90091DE0305B9239AD9
:10A000000091E70300FF02C02B9801C02B9A80E06B
:10A0100012C08A9381E042E023E334E00DED13E0C7
:10A020000E94851E002339F40091DD0307B90091D9
:10A03000DE0308B980E0082F899108958A9381E0B2
:10A0400042E025E334E00DED13E00E94851E00237D
:10A0500039F40091DD030AB90091DE030BB980E009
:10A06000EACF8A9381E042E027E334E00DED13E08C
:10A070000E94851E0023B1F40091CA0305FF04C0AD
:10A080000091DD0307FF0DC00091DD031091DE0399
:10A0900004FF03C00E941E2C02C00E94A157802F03
:10A0A00001C080E0C8CF8A9381E042E029E334E038
:10A0B0000DED13E00E94851E002379F40091DD036D
:10A0C000007C0093DD031091CC00102B1093CC008A
:10A0D0000091DE030E94172080E0ADCF8A9381E0DB
:10A0E00041E02BE334E00DED13E00E94851E0023D8
:10A0F00029F40091DD030E940E1F80E09CCFF0E068
:10A10000E0E0B0E0A0E090E080E070E060E050E0EF
:10A1100040E030E020E010E000E0FE2EEE2EDE2EEB
:10A12000CE2EBE2EAE2E9E2E8E2E7E2E6E2E5E2E0F
:10A130004E2E3E2E2E2E1E2E0E2E0895609700E0DF
:10A1400000934F040093500440E12CE334E08E016F
:10A150000E94851E002319F500EF10E8ECE3F3E000
:10A160000083118304E011E8EEE3F3E00083118340
:10A1700000E00093DE040093DF043E850D85E0EEF1
:10A18000F4E0008331830F850E94E920AE01495F2E
:10A190005F4F9E012F5F3F4F08810E948B22609688
:10A1A000089501FB66F4AD9801E0ECE3F3E0208153
:10A1B0003181EBE4F4E02183328310E012C000E04F
:10A1C0000093A601009159040093A101AE9800E00C
:10A1D000EEE3F3E020813181EBE4F4E0218332838C
:10A1E00014E0009350041093DD0400E013E0E2EE6D
:10A1F000F4E00083118308E213E0E4EEF4E000836E
:10A20000118303E00093560402E00093570400E03A
:10A2100000934B0400934E0401E00093DC04009390
:10A22000DF0400934F040895BA93AA9300914B045E
:10A23000ACE4B4E0ED91FC9112E0019FE00DF11D62
:10A240000591F491E02F0995A991B9910895009194
:10A250000002013041F000910002033021F0009132
:10A2600000020630F9F400914E041091000201172B
:10A2700041F0EFE4F4E0018102600183009100020B
:10A28000BCC00091500401FF12C00E9493200091B5
:10A290004B04039500934B04EFE4F4E001810D7F40
:10A2A00001830895EFE4F4E001810D7F01830895B7
:10A2B00000B7006800BF00914B04039500934B0466
:10A2C00008950091E8040023C1F00091E9040023FF
:10A2D000A1F400E00093E8040E94632D30E021E047
:10A2E00001E514E00E944421009158040093A1016B
:10A2F00000914B04039500934B0408950091E804EA
:10A30000002301F10091E9040023E1F400E000934F
:10A31000E8040E94632D30E020E001E514E00E9493
:10A3200044210091DD040093E90400E00093DD0482
:10A330000091DC040E5F0093DC0400914B04039554
:10A3400000934B0408950091950207FF2BC020E075
:10A3500030E00091DE0410E044E150E00E94CB5A6E
:10A36000A80100E013E0040F151F0E94E9210091ED
:10A37000DE0403950093DE04E4E9F2E001810F7747
:10A3800001830091500400FF08C00091DE040230F8
:10A3900021F4009158040093A10100914B0403950E
:10A3A00000934B0408950091E804002369F000E055
:10A3B0000093E804EAE6F2E003810B7F0383009157
:10A3C0004B04039500934B0408950091E804002387
:10A3D00051F0AF980091DC040093E90400914B0424
:10A3E000039500934B0408950E94C52000E000935C
:10A3F0004F040093500400934B0400934E040895BF
:10A400009A938A932C978BE692E500E000934F0491
:10A41000009350040091CC0004FF04C0009101019E
:10A4200002FD02C00E94DA1F009157040370013040
:10A4300011F488E592E58E01E8E2F1E84CE050E0A5
:10A440000E94D35AE6E5F4E002810B8303810C837A
:10A45000888799874093DE040C2F0E947B2D002370
:10A4600079F400E000934B0401E000934F04009165
:10A470005704037029F0EFE4F4E0018104600183E4
:10A480002C968991999108950091940207FD0FC02F
:10A490000E94932000914B04039500934B04EFE43A
:10A4A000F4E001810D7F0183008102600083089543
:10A4B00030E021E001E514E00E9444210091DE0437
:10A4C00010E0E0915604F0E031970E171F0711F4E9
:10A4D0000E94B32D089530E020E0ECCF009195026A
:10A4E00007FF3DC0E6EEF4E0208131812A5F3F4F57
:10A4F000008111810E94E9210091DE0403950093FF
:10A50000DE042091500422FF18C00091570403700C
:10A51000013019F40BE612E50BC0E091DE04F0E027
:10A52000319600915604E017F04039F408E512E541
:10A53000ECE1F2E0018312832B7F20935004E4E9E5
:10A54000F2E001810F7701830091DE04109156043F
:10A55000011728F000914B04039500934B040895D4
:10A560000E94E05A00915704037009F45CC0909176
:10A5700056049F709A9580E0A0E052C0E2EEF4E0AD
:10A5800040815181465F5F4FE4EEF4E020813181EC
:10A59000E2EEF4E0008111810E94D822E2EEF4E0C4
:10A5A00020813181205F3F4F00811181065F1F4F65
:10A5B0000E947323E2EEF4E0208131812E5E3F4F52
:10A5C00000811181005F1F4F0E94E623E2EEF4E05C
:10A5D0000081F181E02F22893389E0EEF4E00081EF
:10A5E00011810E944F242091DF0430E0B0E02A0F57
:10A5F000331FF901E850FB4F00832091DF042A0F3D
:10A60000BB1FE22FFB2FE850FB4F1183E2EEF4E07B
:10A61000008111810C5E1F4F008311838395AE5F13
:10A62000891708F4ABCF00914B04039500934B04BA
:10A63000E4E00C94E75A8A93FA93EA933A922A92C6
:10A640001A920A927A936A935A934A933A932A9364
:10A650001A930A938FB7E5EFF3E00081006100835E
:10A660000091EC0304FF02C00E94D65701E0009362
:10A67000700409B5016009BD09B501FFFDCF0FE008
:10A680000CBB00918F01046000938F0109B50E7F10
:10A6900009BD5998EEC18A93FA93EA933A922A92A5
:10A6A0001A920A927A936A935A934A933A932A9304
:10A6B0001A930A938FB7E5EFF3E0008100620083FD
:10A6C0000091EC0305FF02C00E94D65701E0009301
:10A6D000710409B5016009BD09B501FFFDCF0FE0A7
:10A6E0000CBB00918F01046000938F0109B50E7FB0
:10A6F00009BDBFC18A93FA93EA933A922A921A92B9
:10A700000A927A936A935A934A933A932A931A93A2
:10A710000A938FB7E5EFF3E00081086000830091B2
:10A72000EC0303FF02C00E94D6570091D60300231A
:10A7300069F00091D801077F0093D80100E00093F1
:10A740009A01BF9A01E000934A033FC0BF9B3DC0FE
:10A750000091FD030093DD010091FE030093DC01F5
:10A760000091FF030093DB01009100040093DA01E4
:10A770000091FA0300939A010091FB030093A50155
:10A780000091FC030093A401009101040093D901FE
:10A790000E9914C00091020400937001009103040B
:10A7A00000936C010091040400936D010091050475
:10A7B00000936E010091060400936F01009107045D
:10A7C00007FD02C0BF9801C0BF9A53C18A93FA9394
:10A7D000EA933A922A921A920A927A936A935A9335
:10A7E0004A933A932A931A930A938FB7519A599A94
:10A7F000E29B0CC0E5EFF3E002810460028300916C
:10A80000EE0302FF02C00E94D657E29AE39B0CC0FF
:10A81000E5EFF3E00281086002830091EE0303FF9D
:10A8200002C00E94D657E39AD89B0CC0E5EFF3E034
:10A830000081016000830091EC0300FF02C00E94D0
:10A84000D657D89A01E0009372040FE00CBB00E0E9
:10A8500000938F010EC18A93FA93EA933A922A9257
:10A860001A920A927A936A935A934A933A932A9342
:10A870001A930A938FB7409B02C0409801C0409A38
:10A880000091D50300FF03C00E941956D6C0009165
:10A89000D6030130B1F40091710100FF09C000E05E
:10A8A00000934A03009171010E7F0093710107C06C
:10A8B0000091710101FF03C002E000934A03D99A9D
:10A8C000BCC0DA9B0CC0E5EFF3E0008104600083BC
:10A8D0000091EC0302FF02C00E94D657DA9AD99B7E
:10A8E0009EC0E5EFF3E00081026000830091EC037D
:10A8F00001FF02C00E94D657D99A00914A04043041
:10A9000018F003E000934A04BF9B89C000914A04F9
:10A9100010E1019FF001E65FFB4F03810093DD0131
:10A9200000914A04019FF001E65FFB4F0481009310
:10A93000DC0100914A04019FF001E65FFB4F0581B5
:10A940000093DB0100914A04019FF001E65FFB4F99
:10A9500006810093DA0100914A04019FF001E65F4D
:10A96000FB4F008100939A0100914A04019FF0017E
:10A97000E65FFB4F01810093A50100914A04019F0E
:10A98000F001E65FFB4F02810093A40100914A04AD
:10A99000019FF001E65FFB4F07810093D9010E99FB
:10A9A0002DC000914A04019FF001E65FFB4F008536
:10A9B0000093700100914A04019FF001E65FFB4F94
:10A9C000018500936C0100914A04019FF001E65F4C
:10A9D000FB4F028500936D0100914A04019FF00135
:10A9E000E65FFB4F038500936E0100914A04019FCF
:10A9F000F001E65FFB4F048500936F0100914A046C
:10AA0000019FF001E65FFB4F0585002311F4BF981D
:10AA100001C0BF9A00914A04039500934A04D89B51
:10AA20000CC0E5EFF3E00081016000830091EC03CE
:10AA300000FF02C00E94D657D89A1BC08A93FA938F
:10AA4000EA933A922A921A920A927A936A935A93C2
:10AA50004A933A932A931A930A938FB7E5EFF3E058
:10AA60000181026001830091ED0301FF02C00E9499
:10AA7000D6578FBF099119912991399149915991CF
:10AA8000699179910990199029903990E991F991FA
:10AA9000899118958A93FA93EA933A922A921A9294
:10AAA0000A927A936A935A934A933A932A931A93FF
:10AAB0000A938FB7E5EFF3E0018101600183009114
:10AAC000ED0300FF02C00E94D657D3CF8A93FA93BA
:10AAD000EA933A922A921A920A927A936A935A9332
:10AAE0004A933A932A931A930A938FB7F89401E002
:10AAF0000093E8047894E5EFF3E0008100680083B8
:10AB00000091EC0307FF02C00E94D657B2CF8A9390
:10AB1000FA93EA933A922A921A920A927A936A9351
:10AB20005A934A933A932A931A930A938FB7E5EF6D
:10AB3000F3E00281016002830091EE0300FF02C096
:10AB40000E94D65796CF8A93FA93EA933A922A9222
:10AB50001A920A927A936A935A934A933A932A934F
:10AB60001A930A938FB7E5EFF3E002810260028344
:10AB70000091EE0301FF02C00E94D6577ACF00E099
:10AB80000093F5030093F6030093F7030093F80393
:10AB90000093F90308950130E9F442E024E038E03D
:10ABA00000E415E00E94851E0091400500936805B1
:10ABB00000914105009369050091F30402FD03C073
:10ABC0000091680505C00091680510916905010FA5
:10ABD0000093F60400E00093940100939901009320
:10ABE0009A01BF9A0091F6040093A50102E0009338
:10ABF000D8010091F30400FD14C000E00093DD01D2
:10AC00000AEC0093DC0100E00093DB010093DA0121
:10AC100008ED0093D9010091F604085F0093A401A8
:10AC200008950091F6040093A40100E00093D90177
:10AC3000089506E00BBB0091F70403950093F70419
:10AC40000230C8F0BF98D89B12C004EF0093F504FF
:10AC500001E00BBB0091F704033021F503E00E94F3
:10AC60007E4E0091F60406950695069514C000EFF9
:10AC70000093F504EFCF0130A9F4F0CF19B3E091C0
:10AC8000F404F0E0E45EFA4F10831091F40413959D
:10AC90001093F4040A95002389F700E808BB00E04C
:10ACA0000E947E4E00911C0502950F701091F704D2
:10ACB000113039F4013021F0102F14501530B0F458
:10ACC0006ACF1230B9F41091F504103FA1F40530A9
:10ACD00019F400E00093D8010091A60104FF1BC005
:10ACE000AF9800E00093E804AF9A089502E0009363
:10ACF000D80109C058F00091F504003F39F000E098
:10AD00000093D80102E00093F704089500E0009357
:10AD1000D8010093D90108952FB7F89400E000936B
:10AD2000FF000CE80093FC0006E50093FD002FBF38
:10AD300020E10EE212E00E94042000E800933E02AF
:10AD40000E94081100912A0207FD3BC0EEE2F2E0EA
:10AD500010810FE02081220F318137FB30E030F984
:10AD6000232B21930A95B1F70081000F008317FB75
:10AD700026F407E8108110271083EEE2F2E010813C
:10AD80000FE02081220F318137FB30E030F9232B97
:10AD900021930A95B1F70081000F008317FB26F479
:10ADA00007E8108110271083D6982EE232E001E8E0
:10ADB00011E00E949011D69AE1EBF3E0018101606D
:10ADC000018308950E94DE5A2497C801422EB32FB2
:10ADD000542E2FB7F8944092FF0002EE0093FC002F
:10ADE00006E50093FD002FBF00E80093B10300E0EB
:10ADF0000093B20344E020EB38E006EB13E00E943E
:10AE0000851EA02F0091B9030093B3030091B803EE
:10AE10000093B4030091B7030093B5030091B3030B
:10AE20001091B6031093B3030093B6030091B403DB
:10AE30001091B5031093B4030093B50344E09C0153
:10AE400007EB13E00E94851EA02B09F069C0252D99
:10AE500010E2042D0E945C105FDF0091B20300FF3E
:10AE60005DC0B093BB0320E009E030E0F901EF548E
:10AE7000FC4F1281F901E65DFD4F148323950A957D
:10AE8000A9F73093370226E008E312E00E9404207D
:10AE9000EAE2F2E002810F7D02830E940811009134
:10AEA0002A0207FD39C000912E020093BC030091D5
:10AEB0002F020093BD03009130020093BE03009166
:10AEC00031020093BF03E1EBF3E0018102600183F3
:10AED0003091BA032091B9031091B8030091B703E0
:10AEE0000F5F1F4F2F4F3F4F088319832A833B83E8
:10AEF00044E09C018E010E94BA1E002311F006E37B
:10AF000010C0FF99FECFE1EBF3E001810460018303
:10AF100000810F77008307C007E303C008E301C087
:10AF200005E3009328022496E6E00C94E55A229764
:10AF300042E098018E010E94851E198108812296A7
:10AF4000089521E031B1D0984CB546FF05C031B924
:10AF50000DE10093280218C024B12F7324B9259A5B
:10AF6000519820916B00216020936B0020916B0021
:10AF70002D7F20936B0027B5216027BD1DBD0CBD23
:10AF800000E800934F0220E0022F089507B50E7FDE
:10AF900007BD00E00CBDD09A04B10F7104B95198FF
:10AFA000EFE4F2E000810F7700830895FF93EF93C1
:10AFB000F5B1E091E703F860E0FFF77FF5B9F77FBF
:10AFC000E0FFF860F5B9EF91FF910895E091C003BB
:10AFD000E068E093C003E091E803E7FD0E94D657E4
:10AFE00008950E94011FFFCF8A93FA93EA933A9241
:10AFF0002A921A920A927A936A935A934A933A93AC
:10B000002A931A930A938FB70091E6010F7E00935B
:10B01000E601E0ECF3E00081006100830091E803C9
:10B0200004FF02C00E94D6578FBF09911991299140
:10B030003991499159916991799109901990299083
:10B040003990E991F991899118958A93FA93EA9345
:10B050003A922A921A920A927A936A935A934A934C
:10B060003A932A931A930A938FB70091CC000D7FDD
:10B070000093CC00E0ECF3E00081006200830091DB
:10B08000E80305FF02C00E94D657CECF1A930A9359
:10B090001FB70091CC000E7F0093CC001FBF099119
:10B0A00019911895EF93FF93EFB7EF93E0910C028E
:10B0B000F0910D020995EF91EFBFFF91EF91189577
:10B0C000EF93FF93EFB7EF93E0910E02F0910F0231
:10B0D0000995EF91EFBFFF91EF911895EF93FF93D3
:10B0E000EFB7EF93E0911102F09112020995EF9101
:10B0F000EFBFFF91EF911895EF93FF93EFB7EF93A9
:10B10000E0911302F09114020995EF91EFBFFF91C6
:10B11000EF911895EF93FF93EFB7EF93E09116023D
:10B12000F09117020995EF91EFBFFF91EF911895FC
:10B13000EF93FF93EFB7EF93E0911802F0911902AC
:10B140000995EF91EFBFFF91EF911895EF93FF9362
:10B15000EFB7EF93E0911A02F0911B020995EF917E
:10B16000EFBFFF91EF911895EF93FF93EFB7EF9338
:10B17000E0911D02F0911E020995EF91EFBFFF9142
:10B18000EF911895EF93FF93EFB7EF93E0911F02C4
:10B19000F09120020995EF91EFBFFF91EF91189583
:10B1A000EF93FF93EFB7EF93E0912102F09122022A
:10B1B0000995EF91EFBFFF91EF9118958A93FA935C
:10B1C000EA933A922A921A920A927A936A935A933B
:10B1D0004A933A932A931A930A938FB7E0911D02E8
:10B1E000F0911E0200E0E030F00709F009958FBFF2
:10B1F00009911991299139914991599169917991BF
:10B200000990199029903990E991F99189911895AF
:10B21000EF93FF93EFB7EF93E0912402F0912502B3
:10B220000995EF91EFBFFF91EF911895EF93FF9381
:10B23000EFB7EF93E0912602F09127020995EF9185
:10B24000EFBFFF91EF9118950C9400001895EF93C4
:10B25000EFB7EF93ECB1E160ECB9E0914603E16048
:10B26000E0934603E091EF03E0FD0E94D657EF9193
:10B27000EFBFEF91189500E000934C0300934B0350
:10B28000009394010093990103E000939A0104E074
:10B290000093A5010093A401BF98BD9A03E00E940A
:10B2A0007E4E00E40093D70100E808BB07E00BBB2B
:10B2B00000E00E947E4E009166010D7F00936601C2
:10B2C0000AE00093D80100E00093D60100917101DB
:10B2D000066000937101089503E00E947E4E09B359
:10B2E00002950F70069500934903033029F404E298
:10B2F0000093A5010093A40100E00C947E4E2497D6
:10B3000003E00E947E4E009149030A9519F0025015
:10B31000C1F17CC0CF9B7AC000917101097F00937D
:10B32000710102E30093A5010093A40100E40093DE
:10B33000D70100E808BB00E00093D6010FEF09BB7E
:10B3400000EF09BB0FEF0093700102E300936C0163
:10B3500044E020EB38E08E010E94851E402F20E063
:10B3600004E030E0442329F4FE01E20FF31F1081D2
:10B3700001C015E519BB23950A95A1F700EC09BB9F
:10B3800040C000914C03002341F401E000934C03C2
:10B39000CF9B3CC000934B0339C000914B0300236B
:10B3A00000917101A1F4097F009371010AE00093FB
:10B3B000A5010093A40100E40093D70100E808BBB5
:10B3C00000E00093D6010BEB09BB00E813C0097F36
:10B3D000009371010AE00093A5010093A40100E429
:10B3E0000093D70100E808BB00E00093D6010BEB07
:10B3F00009BB00E409BB0AEA009370010AE000936C
:10B400006C010091710101600093710100E00E94E4
:10B410007E4E249608958A93FA93EA933A922A925A
:10B420001A920A927A936A935A934A933A932A9376
:10B430001A930A938FB76B9B0CC0E6E4F3E000818C
:10B44000086000830091EF0303FF02C00E94D657FB
:10B450006B9A6A9B0CC0E6E4F3E000810460008311
:10B460000091EF0302FF02C00E94D6576A9A699BBF
:10B470000CC0E6E4F3E00081026000830091EF037A
:10B4800001FF02C00E94D657699A8FBF0991199196
:10B49000299139914991599169917991099019901E
:10B4A00029903990E991F9918991189500E00093DC
:10B4B0004603009347030093480300934903009316
:10B4C0004A0300934B03089507C04A95F90151912F
:10B4D0009F01F80151938F014423B9F7089550E07B
:10B4E00005C03A95F801E30FF51F20833323C9F710
:10B4F0000895442369F04A9550E0F801E40FF51FE0
:10B500006081F901E40FF51F5081651791F301C0C7
:10B5100002C000E0089501E00895542F4A95552394
:10B5200049F0F80151918F01F90161919F0156177E
:10B53000A1F3EFCFF0CF6FEF7FEF40E003C03A957C
:10B5400051F44395421780F450E0F801E40FF51FE1
:10B550001080712538E077FB660F771F86F751E280
:10B56000652750E17527EBCF8B0108950000889582
:10B57000FECF0FEC0DBF05E00EBFC0E0D6E00E948D
:10B58000F05A002311F00E942E5B0E9439450E9460
:10B59000B65A0C94B65A149F102D059F100D049F97
:10B5A000002D110D0895AF93BF93D80101900D9216
:10B5B00041505040D9F7BF91AF9108955A924A92A5
:10B5C000BA93AA939A938A9308955D804C80BB8125
:10B5D000AA8199818881F0E0EC0FFD1FEF010895A9
:10B5E00001E00895202F212BA1F02D9137FF4081FC
:10B5F00037FD4491EF5FFF4F3F4F241739F018F4A8
:10B600000FEF1FEF089501E010E008950150104082
:10B6100061F708950D01D80105C0F90160816D93AE
:10B620002F5F3F4FBA0141505040672BB1F7D00117
:10B630000895F80101C02193BA0141505040672B91
:10B64000D1F7089520E02D9301501040E1F70895BF
:10B6500025912D9301501040D9F708958CE191E880
:10B66000FC0105911491FC013296A591B491FC0165
:10B67000349625913491422F432B19F0F901E8DFDC
:10B6800001C0E0DF069611E88832910748F308957B
:10B690005702220301030000000001010101010023
:10B6A000010100000000FFFFFFFFFFFFFFFFFFFFA2
:10B6B000FFFFFFFFFFFFFFFFFFFFFFFFFFFFFFFF9A
:10B6C000FFFFFFFFFFFFFFFFFFFFFFFFFFFFFFFF8A
:10B6D000FFFFFFFFFFFFFFFFFFFFFFFFFFFFFFFF7A
:10B6E000FFFFFFFFFFFFFFFFFFFFFFFFFFFFFFFF6A
:10FFF000020500FFFFFFFFFFFFFFFFFFFFFFC58FB1
:00B57201D8
:00000001FF
